:100000000215C2AA22A9231218D322021A2090E6AE
:10001000B9E0243D600624037014C32290E74074C5
:10002000AAF0E490E68AF090E68B04F0C322D32293
:10003000D322320210FA7F0212222390E6BAE0F5B0
:1000400019223202110090E50DE030E402C322D300
:1000500022D322021100AF35AE34AD33AC32786F0B
:10006000121888E53604786EF6E5362401F553E477
:1000700033F552E52E30E609E654FCF65353FC8086
:100080000EE52E30E509786EE654FEF65353FE7801
:100090006E16AA26A9271218D3852B82852A83E4F7
:1000A000FF1218D7AF35AE34AD33AC3278881218A2
:1000B00088852B82852A837F011218D7AF35AE340D
:1000C000AD33AC32788C121888E5287003020257E1
:1000D0007AF879007EF87F0074F8F59D7400F59E3B
:1000E00090E67C7468F0E4F0786EE6F02468F554ED
:1000F0000812186F8F358E348D338C32853182859E
:100100003083E4FF1218D7E52E547F64057051D375
:10011000E5539400E5529400500302022F85478274
:10012000854683E4FD7F071218D77F0F121DA58532
:100130002B82852A837F011218D790E67CE535F063
:100140002554F554854782854683E4FD7F041218C3
:10015000D77F0F121DA5E55315537002155280AFBE
:10016000E52E547F6425705ED3E5539400E55294E8
:1001700000500302022F854782854683E4FD7F08F5
:100180001218D77F0F121DA5852B82852A837F0128
:100190001218D790E67CE535F0E534F0E5352554C6
:1001A000F5542534F5548547828546837D017F04C7
:1001B0001218D77F0F121DA574FE2553F55374FF37
:1001C0003552F55280A2D3E5539400E55294004095
:1001D0005E854782854683E4FD7F091218D77F0F2D
:1001E000121DA5852B82852A837F011218D790E6E0
:1001F0007CE535F0E534F0E533F0E532F0E5352522
:1002000054F5542534F5542533F5542532F55485E9
:1002100047828546837D037F041218D77F0F121D06
:10022000A574FC2553F55374FF3552F55280979011
:10023000E67CE554F07416F0786EE6FD7C0024064A
:10024000FDE43390E698F0000000AF05EF90E699EA
:10025000F0000000020377786F12186F8F358E342C
:100260008D338C32853182853083E4FF1218D7E5D7
:100270002E547F6404704DD3E5539400E5529400EE
:10028000500302037790E67BE0F5358531828530B7
:10029000837F011218D7854782854683E4FD7F0A54
:1002A0001218D77F0F121DA5854782854683E4FD6E
:1002B0007F041218D77F0F121DA5E5531553700246
:1002C000155280B3E52E547F64247054D3E55394C3
:1002D00000E5529400500302037790E67BE0F53589
:1002E000E0F5348531828530837F011218D7854748
:1002F00082854683E4FD7F0B1218D77F0F121DA560
:100300008547828546837D017F041218D77F0F12AF
:100310001DA574FE2553F55374FF3552F55280AC7C
:10032000D3E5539400E5529400404C90E67BE0F511
:1003300035E0F534E0F533E0F53285318285308300
:100340007F011218D7854782854683E4FD7F0C1212
:1003500018D77F0F121DA58547828546837D037FB1
:10036000041218D77F0F121DA574FC2553F5537482
:10037000FF3552F55280A9788C12186F8F358E3464
:100380008D338C328531828530837F011218D77886
:100390008812186F8F358E348D338C32853182857B
:1003A0003083E4FF1218D7AA4CA94D1218D322AEFD
:1003B00051C291C290D290EE5480FDC413131354D5
:1003C00001FDC291C290D290C291C290D290D291BE
:1003D000C290D290D291C290D2907B01EEA2D0E492
:1003E000332BFBEEA2E09291C290D290A2E19291C7
:1003F000C290D290A2E29291C290D290A2E3929146
:10040000C290D290A2E49291C290D290A2E5929131
:10041000C290D290A2E69291C290D290A2E792911D
:10042000C290D290EB139291C290D290D291C2908E
:10043000D290D291C290D290C291C290D290ED242B
:10044000FF9291C290D290D291C290D290D291C29A
:1004500090D290D291C290D290ED70030204E0D27B
:100460009653B3FDC290D2907F04C290D290A291D5
:1004700092E0C290D290A29192E1C290D290A291C9
:1004800092E2C290D290A29192E3C290D290A291B5
:1004900092E4C290D290A29192E5C290D290A291A1
:1004A00092E6C290D290A29192E7FE74312FF8A604
:1004B00006DFB7E52DC394085005853532800DE57C
:1004C0002DC394105006853533853432C290D290B6
:1004D000C290D290C29643B302D291C290D29022DF
:1004E0007B01E52DC39408500C853235E4F534F5D5
:1004F00033F5328017E52DC394105010E55130E0EC
:100500000B853335853234E4F533F5327F047431AD
:100510002FF8E6FEA2D0E4332BFBEE139291C290AB
:10052000D290EEA2E19291C290D290A2E29291C2B8
:1005300090D290A2E39291C290D290A2E49291C202
:1005400090D290A2E59291C290D290A2E69291C2EE
:1005500090D290339291C290D290DFB2EB139291ED
:10056000C290D290D291C290D290D291C290D290A9
:1005700022787312186F8F358E348D338C327883D6
:10058000A632E532540FFFBF010E7521FF7522031D
:100590007523AF1221E8800C7521FF75220C75239D
:1005A000D312213B7883E654F0FFBF20387545FF16
:1005B00075461A75478B7542FF75430F7544107564
:1005C00025FF75261E752782754BFF754C1D754DD1
:1005D0005A7529FF752A1F752B8E752FFF75301CD4
:1005E00075316D8071BF10387545FF7546197547B7
:1005F000477542FF75430D7544F67525FF75261E38
:10060000752739754BFF754C1D754D0F7529FF7595
:100610002A1F752B4F752FFF75301C75311B8036C7
:100620007545FF7546147547007542FF754314758F
:1006300044007525FF7526207527FF754BFF754C07
:1006400021754D1D7529FF752A1C752BBF752FFF50
:1006500075301775315BE53430E20C7883E6540F62
:10066000FFBF0103122211E53430E11220E00FC276
:1006700094787F12186F121F0FD294020706E53488
:1006800020E11130E00EC295787B12186F121F0F17
:10069000D2958072E53430E16D30E06AC294C29543
:1006A000787B12186F787F12187BD312185E402C5B
:1006B000787B12186F121F0FD295787B12187BC0AF
:1006C00000787F12186FD000C3EF9BFFEE9AFEED0B
:1006D00099FDEC98FC121F0FD294802A787F121893
:1006E0006F121F0FD294787F12187BC000787B1294
:1006F000186FD000C3EF9BFFEE9AFEED99FDEC98CA
:10070000FC121F0FD2955334F8AF35AE34AD33AC75
:1007100032787312188822E5362401F553E433F554
:1007200052755118752D1FAA22A9231218D375517D
:100730001974F92518F51874FF3517F517E55345A1
:100740005270030208A6E518AE177802CEC313CE86
:1007500013D8F9F5558E547802C333CE33CED8F979
:10076000FFC3E5189FF557E5179EF556C3E5559568
:1007700053E55495524003020878C3E5539555F567
:1007800053E5529554F552D3E5559400E554940041
:10079000402090E67BE0F535E0F534E0F533E0F518
:1007A00032AA22A9231218D3E55515557002155403
:1007B00080D5D3E5579400E5569400400690E67B3B
:1007C000E0F535D3E5579401E5569400400690E6F0
:1007D0007BE0F534D3E5579402E55694004006904B
:1007E000E67BE0F53390E6917480F0000000E5AA26
:1007F00030E0030080F890E690E0FE90E691E07C27
:10080000002400F518EC3EF5177AF079007EF07FB1
:100810000074F0F59A7400F59BD3E5579400E55603
:100820009400500302073DE5579402E556940050AA
:100830000690E67BE0F534C3E5579403E556940053
:10084000500690E67BE0F53390E67BE0F532AA2295
:10085000A9231218D3E55315537002155274FC25C1
:1008600018F51874FF3517F517E5572518F518E52D
:10087000563517F51702073DD3E5539400E552941A
:1008800000500302073D90E67BE0F535E0F534E0EB
:10089000F533E0F532AA22A9231218D3E5531553F4
:1008A0007002155280D2227AF079007EF07F0074B7
:1008B000F0F59A7400F59B90E690E0FE90E691E0EA
:1008C0007C002400F518EC3EF51790E67BE06468A8
:1008D00060037F002290E67BE0F52E5480F52CE546
:1008E0002E547F1218AD091100094B01099002091D
:1008F000AA0309BB0409D505096306097E0709F2A5
:100900000C09BB2409D52509BB4409D54500000ABB
:100910000CE4F52890E67BE0F551E0F551E0F52D8B
:100920002401FFE433FEEF7803CEC313CE13D8F9CE
:10093000FFEFD39400400E90E67BE0FE74312FF879
:10094000A6061F80EC755202020A11752801752C4B
:100950000190E67BE0F551E0F551E0F52D7552028E
:10096000020A11E4F52890E67BE0F551E0F535E068
:10097000F534E0F533E0F532755201020A117528BD
:1009800001752C0190E67BE0F551755201020A11C8
:10099000E4F52890E67BE0F524E0F535E0F534E079
:1009A000F533E0F5327552038067752801752C0127
:1009B00090E67BE0F5247552038056E4F52890E636
:1009C0007BE0F535E0F534E0F533E0F532E0F5367F
:1009D000755204803C752801E4F52C90E67BE0F527
:1009E00035E0F534E0F533E0F532E0F536755204E4
:1009F000801FE4F52890E67BE0F535E0F534E0F57E
:100A000033E0F532E0F5367552058005E4F52CF556
:100A100052AF52227E127F008E0A8F0B7512127512
:100A2000131275081275091C75101275113C751496
:100A30001275155C90E680E030E70E85080C85099C
:100A40000D85100E85110F800C85100C85110D85FC
:100A5000080E85090FEE54E07003020B73755A00FF
:100A6000755B807E127F008E5C8F5DC374B09FFFCC
:100A700074129ECF2402CF3400FEE48F598E58F5B5
:100A800057F556F555F554F553F552AF59AE58ADE7
:100A900057AC56AB55AA54A953A852C312185E506E
:100AA0002AE55B2555F582E55A3554F58374CDF07A
:100AB000E4FAF9F8E5552401F555EA3554F554E919
:100AC0003553F553E83552F55280C0E4F555F554E9
:100AD000F553F552AF59AE58AD57AC56AB55AA5475
:100AE000A953A852C312185E5037E55D2555F5820B
:100AF000E55C3554F583E0FFE55B2555F582E55A65
:100B00003554F583EFF0E4FAF9F8E5552401F5558D
:100B1000EA3554F554E93553F553E83552F552802A
:100B2000B3855A0A855B0B74002480FF741234FF6E
:100B3000FEC3E5139FF513E5129EF512C3E50D9F65
:100B4000F50DE50C9EF50CC3E50F9FF50FE50E9E28
:100B5000F50EC3E5099FF509E5089EF508C3E51103
:100B60009FF511E5109EF510C3E5159FF515E514E9
:100B70009EF51422AF35AE34AD33AC327884121802
:100B800088AA26A9271218D3E5287003020C26E5A7
:100B90002454E0701EE524541FFF852B82852A8390
:100BA0001218D7AF35AE34AD33AC32788412188812
:100BB000020CBEE52454E0FF6480600DEF64A06089
:100BC00008EF64C06003020CBE852B82852A83E493
:100BD000FF1218D7AF35AE34AD33AC327888121867
:100BE00088854482854383AD247F021218D77F1FF6
:100BF000121DA5852B82852A83E4FF1218D7AF35F5
:100C0000AE34AD33AC327884121888788812186FFD
:100C10008F358E348D338C32853182853083E4FF7D
:100C20001218D7020CBEE52454E0701D7884121807
:100C30006F8F358E348D338C32E524541FFF853110
:100C4000828530831218D78075E52454E0FF6480D4
:100C5000600AEF64A06005EF64C07062852B828536
:100C60002A83E4FF1218D7AF35AE34AD33AC3278F7
:100C700088121888788412186F8F358E348D338CD3
:100C800032853182853083E4FF1218D7854482850E
:100C90004383AD247F031218D77F1F121DA57877D9
:100CA00012186F121F0F788812186F8F358E348DBF
:100CB000338C32853182853083E4FF1218D7AA4CF9
:100CC000A94D1218D3788412186F8F358E348D3356
:100CD0008C3222D291D290C290D291D290C290C244
:100CE00091D290C290C291E551D290C290A2E0926E
:100CF00092D290C290A2E19292D290C290A2E2923D
:100D000092D290C290A2E39292D290C290A2E49228
:100D100092D290C290A2E59292D290C290A2E69214
:100D200092D290C290A2E79292D291D290C290D2E7
:100D300091D290C290D291D290C290C291D290C2E0
:100D400090C291E52D240113C313C313FDEDD39479
:100D500000406F74312DF8E6D290C290A2E09292DA
:100D6000A29392E0D290C290A2E19292A29392E1D9
:100D7000D290C290A2E29292A29392E2D290C290BA
:100D8000A2E39292A29392E3D290C290A2E49292B2
:100D9000A29392E4D290C290A2E59292A29392E59D
:100DA000D290C290A2E69292A29392E6D290C29082
:100DB000A2E79292A29392E7FF74312DF8A6071D45
:100DC000808BE52D2401FFE433FEEF7803CEA2E70C
:100DD00013CE13D8F8FDEDD3940040031D80F7D255
:100DE00091D290C290D291D290C290C291D290C230
:100DF00090D290C29022ED541FFEEF14B40C00402C
:100E000003020F06900E1275F003A4C58325F0C5EA
:100E10008373020E36020E44020E78020EAF020FEA
:100E200006020F06020EBA020EC6020ED3020EE032
:100E3000020EEC020EF9EE4420F5357534488E337F
:100E40007532C422ED54E0FFBFA00F753520753414
:100E500060EE4420F5337532C022BFC00F753520D7
:100E6000753460EE44E0F5337532C1227535207576
:100E700034608E337532C022ED54E0FFBFA00FEE18
:100E80004420F5357534647533207532C022BFC0F7
:100E90000FEE4420F5357534647533E07532C122A8
:100EA000EE4420F535753464E4F5337532C0228E96
:100EB00035E4F534F5337532A022E4F535F53475B3
:100EC00033207532D822E4F535753410753320752A
:100ED00032D822E4F5357534207533207532D822A6
:100EE000E4F535F5347533207532DC22E4F53575DB
:100EF00034107533207532DC22E4F53575342075F5
:100F000033207532DC22E4F535F534F533F5322241
:100F1000ED541FFEEF14B40C004003021020900F9C
:100F20002C75F003A4C58325F0C58373020F50020E
:100F30000F5E020F92020FC9021020021020020F52
:100F4000D4020FE0020FED020FFA02100602101396
:100F5000EE4420F5357534488E337532C422ED5495
:100F6000E0FFBFA00F753520753460EE4420F533E7
:100F70007532C022BFC00F753520753460EE44E075
:100F8000F5337532C1227535207534608E33753274
:100F9000C022ED54E0FFBFA00FEE4420F5357534BC
:100FA000647533207532C022BFC00FEE4420F53582
:100FB0007534647533E07532C122EE4420F5357521
:100FC0003464E4F5337532C0228E35E4F534F533FC
:100FD0007532E422E4F535F5347533207532D822C4
:100FE000E4F5357534107533207532D822E4F535C3
:100FF0007534207533207532D822E4F535F5347513
:1010000033207532DC22E4F53575341075332075E4
:1010100032DC22E4F5357534207533207532DC225C
:10102000E4F535F534F533F532227AF879007EF8B7
:101030007F0074F8F59D7400F59E90E67C7468F06E
:10104000E4F07D68E52E547F14604A24FC700302AE
:1010500010F924FE601224E270030210F924E070FB
:10106000030210F92442707890E67CE535F02DFDFE
:10107000E534F02DFDE533F02DFDE532F02DFDF0EA
:101080007416F0E490E698F000000090E699740879
:10109000F00000002290E67CE52DF02DFDE52D24EA
:1010A00001FFE433FEEF7803CEC313CE13D8F9FF6C
:1010B000FEEED39400400E74312EF8E690E67CF0FC
:1010C0002DFD1E80EC90E67CEDF07416F0E490E6C9
:1010D00098F0000000EF240590E699F0000000224F
:1010E00090E67CEDF07416F0E490E698F0000000D5
:1010F00090E6997404F00000002253D8EF32D32216
:10110000022174000221D2000221BC0002218C00C5
:1011100002204300021FCD00020032000200420004
:101120000211FE000211FF0002227F000222800055
:101130000222810002228200022283000222840015
:10114000022285000200420002228600022287005D
:10115000022288000222890002228A0002228B00D9
:1011600002228C0002004200020042000200420003
:1011700002228D0002228E0002228F0002229000A5
:101180000222910002229200022293000222940085
:101190000222950002229600022297000222980065
:1011A0000222990002229A0002229B0002229C0045
:1011B00002229D0002229E008E528F5390E600E094
:1011C00054187012E5532401FFE43552C313F5524D
:1011D000EF13F553801590E600E05418FFBF100B95
:1011E000E55325E0F553E55233F552E5531553AE7B
:1011F00052700215524E6005121ECB80EE22323222
:1012000012010002FF00004010C510B102010102EE
:1012100000010A060002FF00004001000902200050
:10122000010100800F0904000002FF000000070513
:1012300002020002000705860200020009022000E7
:1012400001010080320904000002FF0000000705D0
:101250000202400000070586024000000403090462
:10126000260343002D0053004B00590020004D0081
:101270006900630072006F007300790073007400EE
:1012800065006D0073002A0343002D0053004B00DE
:101290005900200043004B004C0069006E006B00B9
:1012A0002D004C00690074006500200056003100DC
:1012B0000000C291C290D290C291C290D290D291BD
:1012C000C290D290D291C290D290D291C290D2903C
:1012D0007F01E52DC39408500C853235E4F534F5D3
:1012E00033F5328012E52DC39410500B85333585CC
:1012F0003234E4F533F5327E0474312EF8E6FDA283
:10130000D0E4332FFFED139291C290D290EDA2E181
:101310009291C290D290A2E29291C290D290A2E316
:101320009291C290D290A2E49291C290D290A2E502
:101330009291C290D290A2E69291C290D2903392B2
:1013400091C290D290DEB2EF139291C290D290D21D
:1013500091C290D290D291C290D29022D291D2904A
:10136000C290C291D290C290C291E52D240113C3C4
:1013700013C313FFEFD39400406F74312FF8E6D2FC
:1013800090C290A2E09292A29392E0D290C290A2D8
:10139000E19292A29392E1D290C290A2E29292A2A2
:1013A0009392E2D290C290A2E39292A29392E3D25D
:1013B00090C290A2E49292A29392E4D290C290A2A0
:1013C000E59292A29392E5D290C290A2E69292A266
:1013D0009392E6D290C290A2E79292A29392E7FEF5
:1013E00074312FF8A6061F808BD291D290C290D272
:1013F00091D290C290C291D290C290D290C29022CB
:10140000ED541FFEEF14B40C00400302149D901421
:101410001C75F003A4C58325F0C583730214400234
:10142000144B02145A02146902149D02149D0214F2
:101430007302147A02148102148802148F02149623
:10144000EEC454F04EF53375321222EEC454F0F56A
:1014500033EEC4540F4410F53222EEC454F0F53389
:10146000EEC4540F4418F53222EEC454F0F533752F
:10147000322022E4F5337532A122E4F5337532C10E
:1014800022E4F53375328122E4F5337532B122E47A
:10149000F5337532D122E4F53375329122E4F53318
:1014A000F5322290E6B8E0546024E0605924E06010
:1014B000652440706F90E6B9E014601E24FE601F42
:1014C00024FD602024FE6021146023146025146034
:1014D00027240B702812164E8051121533804C129F
:1014E00018D980471216D68042122247803D12003A
:1014F0003680381222588033122278802E90E6A04F
:10150000E04401F0802590E6B9E0FF800090E6A07D
:10151000E04401F0801512000E501090E6A0E04467
:1015200001F0800790E6A0E04401F090E6A0E044DE
:1015300080F02290E6B8E0541F24FE60162402706A
:101540007990E6BAE0B40103C2002290E6A0E0443C
:1015500001F02290E6BAE0705990E6BCE0FF547EBC
:10156000FD7C00EFD3948040067E007F0180047EE6
:10157000007F00EE4CFEEF4D24B2F58274223EF562
:1015800083E493FF3395E0FEEF24A1FFEE34E68F72
:1015900082F583E054FEF090E6BCE0FF5480FE1339
:1015A0001313541FFEEF540F2E90E683F0E04420F7
:1015B000F02290E6A0E04401F02290E6A0E0440191
:1015C000F022787FE4F6D8FD75818F0216090219A2
:1015D000B5E493A3F8E493A34003F68001F208DF97
:1015E000F48029E493A3F85407240CC8C333C454EB
:1015F0000F4420C8834004F456800146F6DFE4809F
:101600000B01020408102040809021A4E47E019385
:1016100060BCA3FF543F30E509541FFEE493A36070
:10162000010ECF54C025E060A840B8E493A3FAE4CB
:1016300093A3F8E493A3C8C582C8CAC583CAF0A31C
:10164000C8C582C8CAC583CADFE9DEE780BE90E6A6
:10165000B8E0541F14601D14602324027065A200BA
:10166000E433FF25E0FFA202E4334F90E740F0E4CB
:10167000A3F08056E490E740F0A3F0804D90E6BCE4
:10168000E0FF547EFD7C00EFD3948040067E007F17
:101690000180047E007F00EE4CFEEF4D24B2F58207
:1016A00074223EF583E493FF3395E0FEEF24A1FF1F
:1016B000EE34E68F82F583E0540190E740F0E4A336
:1016C000F0800790E6A0E04401F0E490E68AF09014
:1016D000E68B7402F02290E6BBE024FE601B1460EF
:1016E0004C24FD602114603824067067E50A90E6FA
:1016F000B3F0E50B90E6B4F022E50C90E6B3F0E52C
:101700000D90E6B4F022120046500DE51290E6B3BB
:10171000F0E51390E6B4F02290E6A0E04401F02258
:10172000E50E90E6B3F0E50F90E6B4F02290E6BA4D
:10173000E0FF1220D4AA06A9077B01EA494B600BFF
:10174000EE90E6B3F0EF90E6B4F02290E6A0E0442D
:1017500001F02290E6A0E04401F022AB07752D7F56
:1017600075514B85354185344085333F85323E7810
:101770006612186F8F3D8E3C8D3B8C3A7862121842
:101780006F8F398E388D378C36EBC454F04BF5356E
:10179000753412753207753380AA22A9231218D323
:1017A000752D7F75510B85354185344085333F85D7
:1017B000323E786612186F8F3D8E3C8D3B8C3A78A6
:1017C0006212186F8F398E388D378C36E4F535F507
:1017D00034753206753380AA22A9231218D322AF9A
:1017E00051C291C290D290C291C290D290C291C285
:1017F00090D290D291C290D290D291C290D2907E4B
:1018000001EFA2D0E4332EFEEFA2E09291C290D27B
:1018100090A2E19291C290D290A2E29291C290D213
:1018200090A2E39291C290D290A2E49291C290D2FF
:1018300090A2E59291C290D290A2E69291C290D2EB
:1018400090A2E79291C290D290EE139291C290D260
:1018500090D291C290D290D291C290D29022EB9F1E
:10186000F5F0EA9E42F0E99D42F0E89C45F022E660
:10187000FC08E6FD08E6FE08E6FF22E6FB08E6F9BE
:1018800008E6FA08E6CBF822ECF608EDF608EEF6E4
:1018900008EFF622D083D082E493F608740193F621
:1018A00008740293F608740393F6740473D083D01B
:1018B00082F8E4937012740193700DA3A393F874EB
:1018C0000193F5828883E4737402936860EFA3A3A5
:1018D000A380DF8A838982E47390E6B8E0541F24F2
:1018E000FE601D2402705890E6BAE0FFB40103D2F6
:1018F0000022EFB40202222290E6A0E04401F0228E
:1019000090E6BCE0FF547EFD7C00EFD3948040065F
:101910007E007F0180047E007F00EE4CFEEF4D24B0
:10192000B2F58274223EF583E493FF3395E0FEEF37
:1019300024A1FFEE34E68F82F583E04401F022908B
:10194000E6A0E04401F022ED541FFEEF24FCB409B0
:1019500000505C90196175F003A4C58325F0C58320
:10196000730219910219AF0219AF02199A0219A153
:101970000219A802198A02198302197C753340756D
:1019800032582275334075325422753340753250C7
:1019900022EE25E0F5337532202275334075324052
:1019A000227533407532442275334075324822E443
:1019B000F535F53422C203C200C202C201121B5F18
:1019C000120A14D2E843D82090E668E04408F09068
:1019D000E65CE0443DF0D2AF90E680E054F7F0538F
:1019E0008EF8C203D2043001051214A3C2013003E1
:1019F000291200515024C203121EFB20001690E64B
:101A000082E030E704E020E1EF90E682E030E60497
:101A1000E020E0E41220A81210FE121BBE80C722B4
:101A2000C0E0C0F0C083C082C0D075D000C000C08C
:101A300001C002C003C004C005C006C007E4FFFE29
:101A4000FDFCAB1DAA1CA91BA81AD312185E401ED0
:101A5000AF1DAE1CAD1BAC1A74FF2FF51DEE34FF8D
:101A6000F51CED34FFF51BEC34FFF51A8002C28C37
:101A7000D007D006D005D004D003D002D001D000CA
:101A8000D0D0D082D083D0F0D0E032ED541FFEEF22
:101A900024FCB409005059901AA575F003A4C5831D
:101AA00025F0C58373021AD5021AF0021AF0021A41
:101AB000DB021AE2021AE9021ACE021AC7021AC09F
:101AC0007533207532B0227533207532A8227533F4
:101AD000207532A0228E3375322022753320753264
:101AE000802275332075328822753320753290221A
:101AF000E4F535F53422D291D290C290D291D290B1
:101B0000C290C291D290C290C291E551D290C2903F
:101B1000A2E09292D290C290A2E19292D290C29010
:101B2000A2E29292D290C290A2E39292D290C290FC
:101B3000A2E49292D290C290A2E59292D290C290E8
:101B4000A2E69292D290C290A2E79292D291D290C3
:101B5000C290D291D290C290C291D290C290229063
:101B6000E600E054E74410F090E61074A0F090E630
:101B700011F000000090E61274AAF0000000E4905A
:101B8000E613F000000090E61474E2F0000000E4B8
:101B900090E615F000000000000090E6917480F0DF
:101BA000000000F0000000E490E68DF000000075F9
:101BB000AF0712226912200A7F0212222322E5AA0D
:101BC00020E0397F041222351208A775F003EFA434
:101BD00024A0F582E5F03422F583E493740193FAAE
:101BE000740293F91218D3E52C600312102A90E6C0
:101BF000917480F0000000E4FF12223520840E78FA
:101C00001EE670031221FE781E76018004E4781E21
:101C1000F62085063085FD120571228F567551110B
:101C2000752D1FAA22A9231218D3755115752D0FD2
:101C3000753207753380AA22A9231218D37551541F
:101C4000752D1FE5564420F5357534488556337596
:101C500032C4AA22A9231218D3755115752D0F75F8
:101C60003206753380AA22A9231218D3228F567503
:101C70005111752D1FAA22A9231218D3755115755C
:101C80002D0F753207753380AA22A9231218D37538
:101C90005154752D1FE5564420F535753448855649
:101CA000337532C4AA22A9231218D3755115752D84
:101CB0000F753206753380AA22A9231218D322ABDE
:101CC00007752D7F75514B786612186F8F3D8E3CCE
:101CD0008D3B8C3A786212186F8F398E388D378C25
:101CE00036EBC454F04BF535753412753206753346
:101CF00080AA22A9231218D375518BAA22A92312D4
:101D000018D3854135854034853F33853E32227571
:101D10005112752D1F786612186F8F358E348D33E2
:101D20008C32AA22A9231218D3755113752D1F784E
:101D30006212186F8F358E348D338C32AA22A9230C
:101D40001218D3755115752D0F785EE6F53208E639
:101D5000F533AA22A9231218D322755112752D1F0B
:101D6000786612186F8F358E348D338C32AA22A983
:101D7000231218D3755113752D1F786212186F8FA7
:101D8000358E348D338C32AA22A9231218D3755183
:101D900015752D0F785EE6F53208E6F533AA22A90F
:101DA000231218D3228F557883E654F07034752DA2
:101DB0007F75514B853234853335753206753380E6
:101DC000786212186F8F398E388D378C367866129C
:101DD000186F8F3D8E3C8D3B8C3AAA22A923121896
:101DE000D32275515485552DAA22A9231218D32226
:101DF000E528601DE55125E025E02473F812186FF1
:101E00008F558E548D538C528F358E348D338C324A
:101E100022853555853454853353853252AF55AEBE
:101E200054AD53AC52E55125E025E02473F8121867
:101E300088E551700312057122755192752D1FAA04
:101E400022A9231218D3AF35AE34AD33AC32786645
:101E5000121888755193752D1FAA22A9231218D321
:101E6000AF35AE34AD33AC32786212188875519507
:101E7000752D0FAA22A9231218D3785EA63208A6C0
:101E80003322755192752D1FAA22A9231218D3AFA0
:101E900035AE34AD33AC327866121888755193750F
:101EA0002D1FAA22A9231218D3AF35AE34AD33ACFF
:101EB000327862121888755195752D0FAA22A923C0
:101EC0001218D3785EA63208A633227400F58690E5
:101ED000FDA57C05A3E582458370F92290E6807418
:101EE0000AF07400F58690E8777C05A3E5824583C7
:101EF00070F9DCF790E6807402F02290E682E0440C
:101F0000C0F090E681F04387010000000000228FBE
:101F1000598E588D578C56E4FFFEFDFCAB59AA58DC
:101F2000A957A856D312185E4024AE58AD57AC56E8
:101F300085591D8E1C8D1B8C1AD28CE4FFFEFDFC76
:101F4000AB1DAA1CA91BA81AD312185E50ED228F34
:101F500056755115752D0F753206753380AA22A955
:101F6000231218D3755154752D1FE5564420F535AD
:101F70007534488556337532C4AA22A9231218D362
:101F8000755191752D1FAA22A9231218D3228F569D
:101F9000755115752D0F753206753380AA22A92348
:101FA0001218D3755154752D1FE5564420F535751B
:101FB00034488556337532C4AA22A9231218D37522
:101FC0005191752D1FAA22A9231218D322C0E0C057
:101FD00083C08290E680E030E72085080C85090DFB
:101FE000850D82850C83A37402F085100E85110F78
:101FF000850F82850E83A37407F05391EF90E65D01
:102000007420F0D082D083D0E03275B20F7F0112FD
:102010002223E4FF12223578731218942100000065
:10202000787712189400000064787B1218940000EE
:10203000000A787F1218940000000F120571D294E4
:10204000D29522C0E0C083C08285100C85110D8519
:102050000D82850C83A37402F085080E85090F8517
:102060000F82850E83A37407F05391EF90E65D74A1
:1020700010F0D082D083D0E03230050990E680E0C5
:10208000440AF0800790E680E04408F07FDC7E059B
:102090001211B890E65D74FFF090E65FF05391EF97
:1020A00090E680E054F7F02290E682E030E004E031
:1020B00020E60B90E682E030E119E030E71590E68B
:1020C00080E04401F07F147E001211B890E680E0B9
:1020D00054FEF022A907AE14AF158F828E83A3E0C1
:1020E00064037017AD0119ED7001228F828E83E0B9
:1020F0007C002FFDEC3EFEAF0580DFE4FEFF227585
:10210000518B752D7FAA22A9231218D37F10743109
:102110002FF8E6FE745D2FF8A606DFF22275510B4C
:10212000752D7F7F10745E2FF8E6FE74322FF8A6AF
:1021300006DFF2AA22A9231218D32275B3F7C29799
:10214000C296C290D291D295D2927F64D290C29020
:10215000DFFAC291D290C29022E4FFFED291D290D7
:10216000C2900FBF00010EEF64064E70EFC291D215
:1021700090C29022C0E0C083C082D2015391EF9000
:10218000E65D7401F0D082D083D0E032C0E0C0833D
:10219000C082D2035391EF90E65D7408F0D082D0F4
:1021A00083D0E032011E01C1041073000000000062
:1021B000000000000000000000000000C0E0C0833C
:1021C000C0825391EF90E65D7404F0D082D083D04A
:1021D000E032C0E0C083C0825391EF90E65D7402AC
:1021E000F0D082D083D0E03275B3F3C297C296C2EA
:1021F00090D291D2957F64C290D290DFFA22E4F51A
:10220000287524CD753533F534F533F532120B745A
:102210002275B3F3C290D291C2967F64C290D290DD
:10222000DFFA22BF0104C2808002D280BF0203C253
:102230008122D28122BF0304C2828002D282BF04E3
:1022400003C28322D2832290E740E519F0E490E6AE
:102250008AF090E68B04F02290E740E516F0E490D7
:10226000E68AF090E68B04F022758AFF758CFF53A6
:1022700089F0438902D2A92290E6BAE0F51622320B
:10228000323232323232323232323232323232322E
:10229000323232323232323232323232323232222E
:1022A000FF229FFF1DF0FF0003FF0B74FF0056FF8E
:0C22B000071700010202030304040505E7
:00000001FF
