:03004300020800B0
:03005300020800A0
:10080000020F0200020F4800020F3200020F1A000E
:10081000020DD900020D9C000207FF00020FD70055
:10082000020FD800020FD900020FDA00020FDB001E
:10083000020FDC00020FDD00020FDE00020FDF00FE
:10084000020FE000020FD700020FE100020FE200EA
:10085000020FE300020FE400020FE500020FE600C2
:10086000020FE700020FD700020FD700020FD700D8
:10087000020FE800020FE900020FEA00020FEB008E
:10088000020FEC00020FED00020FEE00020FEF006E
:10089000020FF000020FF100020FF200020FF3004E
:1008A000020FF400020FF500020FF600020FF7002E
:0808B000020FF800020FF9002D
:10030000E4F513F512F511F510C203C200C202C2E2
:10031000011205C27E017F008E238F24752B01758B
:100320002C14752101752220752901752A50752D0F
:1003300001752E8090E680E030E70E85212585222C
:1003400026852927852A28800C852925852A268522
:100350002127852228EE54E0700302046B751400F7
:100360007515807E017F008E168F17C374CC9FFF9A
:1003700074019ECF2402CF3400FEE48F0F8E0EF561
:100380000DF50CF50BF50AF509F508AF0FAE0EAD3E
:100390000DAC0CAB0BAA0AA909A808C3120F805018
:1003A00026E515250BF582E514350AF58374CDF0A5
:1003B000E50B2401F50BE4350AF50AE43509F509E6
:1003C000E43508F50880C4E4F50BF50AF509F508ED
:1003D000AF0FAE0EAD0DAC0CAB0BAA0AA909A80865
:1003E000C3120F805033E517250BF582E516350A49
:1003F000F583E0FFE515250BF582E514350AF58355
:10040000EFF0E50B2401F50BE4350AF50AE43509B4
:10041000F509E43508F50880B7851423851524749B
:10042000002480FF740134FFFEC3E52C9FF52CE50A
:100430002B9EF52BC3E5269FF526E5259EF525C3C6
:10044000E5289FF528E5279EF527C3E5229FF5229D
:10045000E5219EF521C3E52A9FF52AE5299EF52988
:10046000C3E52E9FF52EE52D9EF52DD2E843D8202D
:1004700090E668E04409F090E65CE0443DF0D2AFDD
:1004800090E680E020E105D205120E0F90E680E0B4
:1004900054F7F0538EF8C203300105120A35C20139
:1004A000300329120FD35024C203120EC3200016AA
:1004B00090E682E030E704E020E1EF90E682E03071
:1004C000E604E020E0E4120E6C120FD51204D18095
:0104D000C764
:100A350090E6B8E0546024E0605024E0604E244025
:100A4500705190E6B9E014601E24FE601F24FD601D
:100A55002024FE6021146023146025146027240BD4
:100A650070311209448033120AA7802E120B0E80B2
:100A750029120B738024120F5E801F120D5C801AE1
:100A8500120F6F80151207F8801080071209C250E7
:100A950009800090E6A0E04401F090E6A0E04480E3
:020AA500F0223D
:03003300020FCFEA
:040FCF0053D8EF32D2
:0A0FB8000001020203030404050512
:02073F00C104F3
:1005C20090E6007412F000000090E60B7403F00055
:1005D200000012068300000090E6D27401F00000D1
:1005E2000090E6E204F000000090E61074A0F00033
:1005F200000090E611F000000090E61274A2F000F4
:10060200000090E61474E2F000000090E6047480AA
:10061200F00000007402F00000007404F00000001A
:100622007406F00000007408F0000000E4F000001E
:100632000000000090E618F000000090E61AF000BA
:10064200000090E619F000000090E61BF0000000A8
:1006520090E6D27402F000000090E6E214F000008E
:100662000090E6497482F0000000F000000075AFCF
:1006720007E4F51CF51D120F9143B5C0C2B7D2B6FF
:010682002255
:1004D100E5BA20E11490E780E0FF120E3E00000033
:1004E10090E68D7480F0000000E51AD39400400F6F
:1004F10000000090E68FE51AF0000000E4F51AE52F
:10050100AA20E060E5BB30E71100000090E64974E5
:1005110002F0000000E490E604F090E6F4E020E050
:1005210006C2B7D2B680F3D2B7C2B6E5AB20E1348A
:1005310000000090E6ABE090E6D0F000000090E60D
:10054100ACE090E6D1F0000000120CDA000000E40B
:10055100F5BB000000E5BB20E706C2B7D2B680F5C7
:10056100D2B7C2B6D3E51D9400E51C94004051E515
:10057100AA30E04CE5BB30E747E5AC30E142000092
:1005810000E51C90E6D0F0000000AF1D90E6D1EF31
:10059100F0000000120D1B00000075BB06000000FA
:1005A100E5BB20E706C2B7D2B680F500000090E6B1
:1005B100487406F0000000E4F51CF51DD2B7C2B680
:0105C1002217
:100CDA00901A90E090E6C6F0901A91E090E6C7F07C
:100CEA00901A92E090E6C8F0901A93E090E6C9F064
:100CFA00901A94E090E6CAF0901A95E090E6CBF04C
:100D0A00901A96E090E6CCF0901A97E090E6CDF033
:010D1A0022B6
:100D1B00901A87E090E6C6F0901A88E090E6C7F04C
:100D2B00901A89E090E6C8F0901A8AE090E6C9F034
:100D3B00901A8BE090E6CAF0901A8CE090E6CBF01C
:100D4B00901A8DE090E6CCF0901A8EE090E6CDF004
:010D5B002275
:020FD300D32227
:020FD500D32225
:100B730090E6BBE024FE601814603324FD601B1470
:100B8300602224067046E52390E6B3F0E52480371F
:100B9300E52590E6B3F0E526802DE52B90E6B3F04E
:100BA300E52C8023E52790E6B3F0E528801990E64D
:100BB300BAE0FF120E98AA06A9077B01EA494B6027
:100BC3000BEE90E6B3F0EF90E6B4F02290E6A0E0EF
:030BD3004401F0EA
:010BD60022FC
:100D5C0090E680E030E71800000090E6247402F082
:100D6C00000000E490E625F0000000D2048016009C
:100D7C000000E490E624F000000090E6257440F0BA
:100D8C00000000C20490E6BAE0F51ED2B7C2B6224B
:100F5E0090E740E51EF0E490E68AF090E68B04F010
:010F6E002260
:0707F80090E6BAE0F51B22B8
:100F6F0090E740E51BF0E490E68AF090E68B04F002
:010F7F00224F
:1009440090E6B8E0541F14601514601B2402705B19
:10095400A200E43325E0FFA202E4334F8044E49094
:10096400E740F0A3F0804B90E6BCE0FF547EFD7CB2
:1009740000EFD394807E0040047F0180027F00EE6C
:100984004CFEEF4D24B8F582740F3EF583E493FFDB
:100994003395E0FEEF24A1FFEE34E68F82F583E089
:1009A400540190E740F0E4A3F0800790E6A0E0440F
:0E09B40001F0E490E68AF090E68B7402F022E7
:100AA70090E6B8E0541F24FE60102402705190E6CF
:100AB700BAE0B40103C20022804590E6BAE0703D77
:100AC70090E6BCE0FF540FFE7C00547E24B8F5820C
:100AD700EC340FF583E493FD3395E0FCED24A1FDA1
:100AE700EC34E68D82F583E054FEF0EF5480131367
:100AF70013541F2E90E683F0E04420F022800090EC
:070B0700E6A0E04401F0222A
:100B0E0090E6B8E0541F24FE60162402704F90E663
:100B1E00BAE0FFB40103D20022EFB4020122803DFD
:100B2E0090E6BCE0FF547EFD7C00EFD394807E0007
:100B3E0040047F0180027F00EE4CFEEF4D24B8F59D
:100B4E0082740F3EF583E493FF3395E0FEEF24A10C
:100B5E00FFEE34E68F82F583E04401F02290E6A0AA
:050B6E00E04401F0224B
:1009C20090E6B9E0244F601714602214602924F3E2
:1009D200604B24FD603524137055120EE8805212CC
:1009E2000C38E490E68AF090E68BF0804490E6BA08
:1009F200E0FF120FA0803A120FC990E740EFF0E437
:100A020090E68AF090E68B04F0802690E74074AA84
:100A1200F0E490E68AF090E68B04F0C32290E6BB05
:100A2200E0FE90E6BAE0FDEEF51CEDF51D8002D386
:030A320022C322BA
:100F0200C0E0C083C082D2015391EF90E65D7401CC
:080F1200F0D082D083D0E03260
:100F3200C0E0C083C0825391EF90E65D7404F0D0AC
:060F420082D083D0E032F2
:100F4800C0E0C083C0825391EF90E65D7402F0D098
:060F580082D083D0E032DC
:100DD900C0E0C083C082852925852A26852682858B
:100DE9002583A37402F085212785222885288285F9
:100DF9002783A37407F05391EF90E65D7410F0D048
:060E090082D083D0E0322C
:100F1A00C0E0C083C082D2035391EF90E65D7408AB
:080F2A00F0D082D083D0E03248
:100D9C00C0E0C083C08290E680E030E7208521254A
:100DAC00852226852682852583A37402F085292732
:100DBC00852A28852882852783A37407F05391EF11
:0D0DCC0090E65D7420F0D082D083D0E0323C
:0107FF0032C7
:010FD70032E7
:010FD80032E6
:010FD90032E5
:010FDA0032E4
:010FDB0032E3
:010FDC0032E2
:010FDD0032E1
:010FDE0032E0
:010FDF0032DF
:010FE00032DE
:010FE10032DD
:010FE20032DC
:010FE30032DB
:010FE40032DA
:010FE50032D9
:010FE60032D8
:010FE70032D7
:010FE80032D6
:010FE90032D5
:010FEA0032D4
:010FEB0032D3
:010FEC0032D2
:010FED0032D1
:010FEE0032D0
:010FEF0032CF
:010FF00032CE
:010FF10032CD
:010FF20032CC
:010FF30032CB
:010FF40032CA
:010FF50032C9
:010FF60032C8
:010FF70032C7
:010FF80032C6
:010FF90032C5
:1001000012010002FF00004010C500B2000201020F
:020110000001EC
:0A0114000A060002FF00004001008F
:1001200009022E00010100800F0904000004FF00F5
:1001300000000705010240000007058102400000A1
:0E014000070502020002000705860200020009
:1001500009022E0001010080320904000004FF00A2
:100160000000070501024000000705810240000071
:0E01700007050202400000070586024000005D
:1001800004030904260343002D0053004B005900CB
:1001900020004D006900630072006F007300790059
:1001A0007300740065006D007300220343002D008E
:1001B00053004B005900200043004B004C006900E5
:0E01C0006E006B002000500072006F00000007
:1007410060801A00010A010138010107000102005D
:100751000100000000040604040404000009000074
:100761002D00003F013901010101010700030202CF
:10077100020202000000000000000000002D000045
:100781000000003F0101010101010107000000001B
:100791000000000000000000000000000000000058
:1007A1000000003F010101010101010700000000FB
:1007B1000000000000000000000000000000000038
:1007C1000000003F60241A870000000000000000C4
:1007D1000081360100040303020100000000000053
:1007E100000000000000000000000000471A80E047
:0607F100000000EEE40030
:1006830090E60174EEF090E6F574FFF0901A80E0C6
:1006930090E6F3F0901A81E090E6C3F0901A82E0BE
:1006A30090E6C1F0901A83E090E6C2F0901A85E0DC
:1006B30090E6C0F0901A86E090E6F4F075AF077408
:1006C3001AF59A7400F59B759DE4E4F59EFF90E698
:1006D3007BE090E67CF00FBF80F490E67174FFF04E
:1006E300F5B490E672E04480F043B680000000E485
:1006F30090E6C4F000000090E6C5F0901A87E09001
:10070300E6C6F0901A88E090E6C7F0901A89E09068
:10071300E6C8F0901A8AE090E6C9F0901A8BE09050
:10072300E6CAF0901A8CE090E6CBF0901A8DE09038
:0B073300E6CCF0901A8EE090E6CDF0CE
:01073E002298
:0F0F910053B5C043B51BC2B0C2B1D2B3D2B42264
:100EE800C2B37F147E00120C94D2B3800320B509DC
:0A0EF8007F017E00120C9480F422AA
:100C380074E7F59D7440F59E90E68BE0FFAE071FC4
:100C4800EE604890E67CE0F5F0A2F792B0D2B1C22F
:100C5800B1A2F692B0D2B1C2B1A2F592B0D2B1C2ED
:100C6800B1A2F492B0D2B1C2B1A2F392B0D2B1C2E1
:100C7800B1A2F292B0D2B1C2B1A2F192B0D2B1C2D5
:0B0C8800B1A2F092B0D2B1C2B180B2B4
:010C9300223E
:0C0FA000EF24FF92B47F017E00020C944D
:050FC900A2B2E433FFB9
:010FCE002200
:070FC200EF24FFB392B422FB
:0C0FAC00A2B2E43390E7C0F0751A0122F5
:100BD700AD07AC06EAF59DE9F59ED3ED9400EC94DC
:100BE70000404D90E67CE0F5F0A2F792B0D2B1C29A
:100BF700B1A2F692B0D2B1C2B1A2F592B0D2B1C24F
:100C0700B1A2F492B0D2B1C2B1A2F392B0D2B1C242
:100C1700B1A2F292B0D2B1C2B1A2F192B0D2B1C236
:100C2700B1A2F092B0D2B1C2B1ED1D70AD1C80AAD5
:010C3700229A
:100E3E00EF24BE600D14601A14601F2403701E028E
:100E4E000EE890E781E0FF7E007B017AE77984026D
:0D0E5E000BD790E783E0FF020FC2120FAC2C
:010E6B002264
:100E6C0090E682E030E004E020E60B90E682E03091
:100E7C00E119E030E71590E680E04401F07F147E44
:0C0E8C0000120C9490E680E054FEF0226E
:100E0F0030050990E680E0440AF0800790E680E024
:100E1F004408F07FDC7E05120C9490E65D74FFF0C1
:0F0E2F0090E65FF05391EF90E680E054F7F022E9
:100C94008E188F1990E600E054187012E51924019B
:100CA400FFE43518C313F518EF13F519801590E612
:100CB40000E05418FFBF100BE51925E0F519E518FD
:100CC40033F518E5191519AE18700215184E60059C
:060CD400120ED780EE2293
:020E9800A907A8
:100E9A00AE2DAF2E8F828E83A3E064037017AD014F
:100EAA0019ED7001228F828E83E07C002FFDEC3ECB
:080EBA00FEAF0580DFE4FEFF3E
:010EC200220D
:100EC30090E682E044C0F090E681F04387010000A1
:040ED30000000022F9
:100ED7007400F58690FDA57C05A3E582458370F92E
:010EE70022E8
:030000000208B83B
:0C08B800787FE4F6D8FD75812E0208FF61
:100F8000EB9FF5F0EA9E42F0E99D42F0E89C45F0C7
:010F9000223E
:1008C400020300E493A3F8E493A34003F68001F247
:1008D40008DFF48029E493A3F85407240CC8C33335
:1008E400C4540F4420C8834004F456800146F6DF04
:1008F400E4800B010204081020408090073FE47E4E
:10090400019360BCA3FF543F30E509541FFEE493F8
:10091400A360010ECF54C025E060A840B8E493A3BF
:10092400FAE493A3F8E493A3C8C582C8CAC583CAEA
:10093400F0A3C8C582C8CAC583CADFE9DEE780BEA2
:0107F7000001
:00000001FF
