:020000040800F2
:10400000A82B002021410008334D0008154B000863
:10401000314D000807420008A95C000800000000BC
:1040200000000000000000000000000039500008FF
:104030005D47000800000000ED4E000855570008DD
:104040003B4100083B4100083B4100083B41000860
:104050003B4100083B410008D94700083B410008AC
:104060003B4100083B4100083B4100083B41000840
:104070003B4100083B4100083B4100083B41000830
:104080003B4100083B4100083B4100081F5B000822
:10409000155C00083B4100083B4100083B4100081B
:1040A0003B4100083B4100083B4100083B41000800
:1040B000295800083B4100083B4100083B410008EB
:1040C0003B4100083B4100083B4100083B410008E0
:1040D0003B4100083B410008615900083B41000892
:1040E0003B4100083B4100083B410008DFF80CD091
:1040F00000F04CF80048004781B90008A82B0020C8
:10410000EFF30980704780F309887047EFF3088068
:10411000704780F30888704740BA7047C0BA70474C
:104120000648804706480047FEE7FEE7FEE7FEE751
:10413000FEE7FEE7FEE7FEE7FEE7FEE7A957000819
:10414000ED40000840EA01039B0703D009E008C9DD
:10415000121F08C0042AFAD203E011F8013B00F84C
:10416000013B521EF9D27047D2B201E000F8012B98
:10417000491EFBD270470022F6E710B513460A46E7
:1041800004461946FFF7F0FF204610BD064C074DC8
:1041900006E0E06840F0010394E807009847103417
:1041A000AC42F6D3FFF7A6FF54CA000874CA000851
:1041B00070B58C1810F8015B15F0070301D110F8E9
:1041C000013B2A1106D110F8012B03E010F8016B16
:1041D00001F8016B5B1EF9D12B0705D40023521E99
:1041E0000DD401F8013BFAE710F8013BCB1A921C01
:1041F00003E013F8015B01F8015B521EF9D5A142FF
:10420000D8D3002070BDFEE7C1B2000A40EA012009
:10421000704700002DE9F041184E194F194C1A4D06
:1042200026E000BF47F6FF702060288800F00F01ED
:1042300007EB81003170D0F8002C92B2130408D53E
:10424000D0F8002C40F68F731A40C0F8002C0F48AD
:1042500009E012060CD5D0F8002C48F60F731A406E
:10426000C0F8002C0A4800EB810050F8040C80478D
:10427000206828800004D5D4BDE8F081441A0020CD
:1042800000500040445C0040A41000208810002032
:104290006C1000202DE9F84F0020ADF80000DFF889
:1042A00034A14BF6BF7648F280074A4D4A4C40F69F
:1042B0008F7848F60F7BDFF824910AF1440A31E049
:1042C0000888474A10F00F00107034D0454901EBC0
:1042D0008001D1F8002CADF80020BDF800201204B8
:1042E0000BD5D1F8002C02EA0802C1F8002C3E4997
:1042F00001EB800050F8040C8047BDF80000000678
:1043000010D537483749007801EB8001D1F8002CEF
:1043100002EA0B02C1F8002C344901EB800050F88E
:10432000040C8047DAF800004946A9F800000004B0
:10433000C6D4BDE8F88F28682080208800F03000BF
:104340006080208800F4405020802868304080F44D
:10435000005080F02000384328600888C006286894
:1043600015D400EA0B00286000F068FC26E02188E4
:10437000890401D580F400506188C90626D461887B
:10438000890601D580F0200038432860D1E7ADF8D8
:104390000000BDF80000000506D5286800EA080006
:1043A000286001F003F809E0BDF800000004B9D569
:1043B000286800EA0800286000F064FD2868218869
:1043C0003040C904D3D580F48050D0E780F010008D
:1043D000D5E70000005C0040561A0020A410002021
:1043E000441A002000500040881000206C1000206B
:1043F000810008480844D0F8001C490409D5D0F8C9
:10440000001C48F68F7211404CF280021143C0F834
:10441000001C704700500040810008480844D0F854
:10442000001C490609D5D0F8001C48F68F721140CF
:1044300048F2C0021143C0F8001C70470050004011
:10444000810006480144D1F8000C48F68F62104004
:1044500048F280021043C1F8000C70470050004041
:104460002DE9F047DFF89480254F4FF03009D8F858
:10447000001001F11005088A0E7A08B9042E04D044
:10448000AC88A04215D8042614E01E480178012902
:1044900003D00726102038802BE01B4A0021126829
:1044A0001A4B120403EBD2325160A7F8009001704E
:1044B0001FE00226844200D90446A96820468847A6
:1044C0008246002000F0D8FA01462246504601F00C
:1044D000EDFB2146002000F0C3FE2888001B288049
:1044E000688820446880A7F8009009494FF440503C
:1044F0000880D8F800000672BDE8F087481A00204E
:10450000581A0020401A0020505C00400060004013
:10451000561A00202DE9F047224EDFF88C80302714
:10452000356835F8100FA968A9B100B3AC8884428A
:1045300000D904462046884781462888001B2880E9
:10454000688820446880002000F076FA0146224600
:10455000484600F0BBFC288848B114494FF440504D
:1045600008800021084600F07BFEA8F8007028882B
:10457000A988884201D3032001E020B105203168D9
:104580000872BDE8F08731680620087208490020EB
:104590000968084A090402EBD1314860A8F80070A4
:1045A000EFE70000481A0020581A0020561A002091
:1045B000505C004000600040F8B55F4C5F4D09263C
:1045C0002068002729684278062A05D0CAB1082A3F
:1045D00051D00A2A54D06FE0027852066CD180780C
:1045E000012806D0022806D0062806D0032806D0C7
:1045F00062E0C96958E0096A56E0896A54E0496A8C
:1046000052E04288B2BBC288022A55D102798ABBE5
:104610000278530601D1838833B102F07F02012A68
:1046200004D0022A0CD047E045493DE08A69407930
:1046300000219047F0B92068807A0028F4D13BE04F
:10464000417901F00F0001F070020B063D4901EBCA
:104650008001D1F8001C03D5C1F30111090102E06A
:10466000C1F301310903384B1B78834224D90AB9BD
:104670000029D9D120E0007840061DD1334913E04C
:10468000027802F07F02012A16D1827AA2B1428812
:1046900092B9027982B9C288012A0DD18A6940791A
:1046A0000021904740B92A4931B120684782816191
:1046B00000208847002006E02968206809694078C2
:1046C0008847032813D021680A8AA2F57F43FF3B5D
:1046D0000BD002280ED06AB10878000626D5C8880B
:1046E000009082420AD9088218E00E72F8BD206854
:1046F0000672F8BD4FF008000872F8BD0ED22868A7
:10470000144B90F83000824201D21F7006E0B2FBD9
:10471000F0F400FB142008B901201870286890F804
:1047200030008882BDE8F840FFF79ABE0320087287
:10473000094900030880F8BD481A00204C1A0020DF
:104740007D55000800500040201900201155000838
:1047500055550008401A0020561A0020704701B530
:10476000009801E0401E00900028FBD108BD01B573
:1047700081B0762204E000920098411E0091FBD2A5
:104780000198411E0191F6D20CBD000001490120A3
:10479000087070470010002000F0CEB903F082B915
:1047A000704705F099BE000010B50649052001F0DC
:1047B00043FA81B2034805F0BDFEBDE81040052074
:1047C00000F02CBD701A002010B503F023F9BDE8ED
:1047D000104007F049B9000010B5012000F01CF8A6
:1047E00000280ED007480268012142B10022026071
:1047F00005480160BDE81040012000F007B80160E5
:10480000F6E710BDEC190020F019002001490860FE
:104810007047000014040140064A01460020126857
:10482000044B0A4014331B680B4202D0002A00D00C
:1048300001207047000401400B4B48F68F7203EBD8
:10484000800001290AD0022907D1D0F8001C1140AC
:104850004CF280021143C0F8001C7047D0F8001CD5
:10486000114048F2C002F5E70050004008B50121B0
:104870004FF4FE7000F086FB4FF6FF70ADF80000BD
:1048800000208DF8030069460B4800F059F869468E
:104890000A4800F055F86946094800F051F86946A1
:1048A000084800F04DF86946074800F049F86946A5
:1048B000064800F045F808BD000C0140001001401A
:1048C0000014014000180140001C0140002001407C
:1048D00038B501211C2000F055FB4FF48040ADF8A5
:1048E000000010208DF803000220124C8DF8020009
:1048F0006946204600F024F84FF40040ADF800006F
:104900006946204600F01CF82024ADF800406946B6
:10491000094800F015F8E500ADF800506946074871
:1049200000F00EF8044814300460044810300560AC
:1049300038BD000000100140000C0140000801409B
:10494000F0B5CA78002502F00F03D20601D58A78A7
:1049500013430A784FF00F0E12F0FF0F4FF00102D1
:104960001CD004680F8802FA05F63740B74211D10F
:104970004FEA850C0EFA0CF724EA070703FA0CF449
:104980003C43CF78282F02D0482F02D002E0466166
:1049900000E006616D1C082DE4D304600C88FF2C38
:1049A0001ED944685FF0000606F1080702FA07F511
:1049B0000F882F40AF420FD14FEA860C0EFA0CF74A
:1049C000BC4303FA0CF73C43CF78282F00D1456154
:1049D000CF78482F00D10561761C082EE4D34460BF
:1049E000F0BD0000034901EB8000D0F8000C80B25C
:1049F00070470000005000400549096889B201EB8A
:104A0000C000044901EB40008088C0F309007047F2
:104A1000505C0040006000400549096889B201EB24
:104A2000C000044901EB40008089C0F309007047D1
:104A3000505C0040006000400549096889B201EB04
:104A4000C000044901EB4000008980B270470000BB
:104A5000505C0040006000400549096889B201EBE4
:104A6000C000044901EB40008089C0F30900704791
:104A7000505C0040006000400449096889B201EBC5
:104A8000C000034931F8100080B27047505C00400C
:104A9000006000402DE9F0411C484FF000660168BD
:104AA000001D0568001D00680C181949542001F10B
:104AB000100788700020C8703068C2B2542A15D020
:104AC00006220020091D00F0E7F828460822394692
:104AD00000F0E2F82046082207F1100100F0DCF8AF
:104AE0000620801C5028FCDBBDE8F081000A06226D
:104AF000091D00F0D1F802223946706800F0CCF8A8
:104B00000349082214312046E8E70000E8F7FF1FB8
:104B10001C100020FEE70000064810B502210170BD
:104B2000232141700222FA21002000F0D9F802204E
:104B300010BD0000DC24002010B50449012001F064
:104B40007BF803490120086010BD0000DC1A00203A
:104B50009C1900200021C278001D11E0412A0DD1CE
:104B600010F8011B10F8012B42EA012210F8021B79
:104B700041EA02210A0210F8011C114310F8012B2E
:104B8000002AEBD106480270064A914205D0064A37
:104B90001160064A01211160017001207047000078
:104BA000DC24002000400008041000200810002031
:104BB000012080F3138805480168054A01F4E0618B
:104BC00011430160BFF34F8FFEE700000CED00E0E2
:104BD0000400FA0501480068704700009C19002095
:104BE000134910B50020086012480078612804D0ED
:104BF000682806D0692811D117E00E48FFF7AAFFF0
:104C000002E00C48FFF788FF021E07DD0A498120F9
:104C100001F024F83021012000F030FBBDE8104005
:104C20004FF44051012000F0E1BAFFF7C1FF00004E
:104C30009C190020DC1A0020DC24002010B5134C45
:104C40002068017A022904D0042902D0062905D05F
:104C500015E0FFF705FC2068007A11E0417805298E
:104C600009D10178490606D1C07800F0EFF908486B
:104C70000068006A8047074800688068804708200D
:104C800021680872BDE8104000F032B9481A0020CF
:104C9000501A00204C1A002030B500231D460EE0AB
:104CA00000F00F040A2C01D2303400E0373401F850
:104CB000134001EB430400095B1C6570DBB29342B7
:104CC000EED330BD10B54168044CA160E1600068CE
:104CD000FFF71FFAE068BDE810400047041000200D
:104CE00072B60448416081604FF47A714A43C260F1
:104CF00062B67047001A00200B480C4A4FF400417E
:104D0000C3686BB15B1EC36083685B1E836006D1A2
:104D10004368836003781BB1116100210170704703
:104D200051610121FAE70000001A00200010014043
:104D3000FEE770477047000070B50F23C478017814
:104D40000122F4B1144C2468457804F4E064C4F5FD
:104D5000E064240AC4F10406E3408478B5401C40B2
:104D60002C4301F1E021230181F80034007800F0A8
:104D70001F018A404009800000F1E020C0F80021B6
:104D800070BD01F01F0082404809800000F1E02062
:104D9000C0F8802170BD00000CED00E0024908431E
:104DA00002490860704700000000FA050CED00E0C1
:104DB00070B52F4D2868017844784A0606D001F076
:104DC0007F00012828D002282BD035E0092C06D0FE
:104DD000052C07D0032C0ED0012C14D02CE000F0B1
:104DE00017FC28E0C1787F292ED8817861BB8188A3
:104DF00051BB807A27E0C17801291DD18088D8B9BC
:104E000000F022FC17E0C178012915D1818899B9F9
:104E1000407A80060AD40FE00B2C0DD100F06AFC1A
:104E200009E0012C02D0032C03D005E000F0F2FAD7
:104E300001E000F01BFC58B10E49204609684969A1
:104E40008847032802D018B108200DE009200BE0A4
:104E5000094A062000211268084B120403EBD232E3
:104E60005160074A302111802968087270BD000026
:104E7000481A00204C1A0020505C0040006000409E
:104E8000581A002010B50F4C2068007A022811D063
:104E900004280FD0032804D0052802D0072805D005
:104EA00008E0FFF737FB2068007A04E00648006856
:104EB000C0688047082021680872BDE8104000F0F3
:104EC00017B80000481A00204C1A0020064B521C4C
:104ED000520803EB410105D031F8043B20F8023BB6
:104EE000521EF9D17047000000600040704700007A
:104EF0000C4810B590F83010002000F057F90A481F
:104F00000068007A082802D0092809D006E007497D
:104F10004FF480500880064910200880002010BD02
:104F2000012010BDBC100020481A0020561A002095
:104F3000581A00200949202008600949C00008606B
:104F40000848012101600021074A0160031D196022
:104F50004FF4E0511180016000207047100C0140B7
:104F600014080140405C0040541A0020044A002903
:104F7000D16901D0014300E08143D1617047000055
:104F800000100240044A0029916901D0014300E069
:104F900081439161704700000010024030B51F4905
:104FA0004A6812F00C031E4A03D0042B01D0082BD0
:104FB00021D002604A680F231A4C03EA1212A35C44
:104FC0000268DA4042604B68072505EA1323E35C78
:104FD00022FA03F383604B6805EAD323E35CDA40EB
:104FE000C2604968032303EA9131231F595CB2FB75
:104FF000F1F1016130BD4A684B6802F470124FF064
:10500000020413F4803F04EB924202D04B689B03EE
:1050100001D5054B00E0024B5A43CAE7001002409D
:1050200000127A00301A002000093D000149C1F841
:10503000D80070470000424270470000024920F04B
:105040000700086070470000505C0040F0B50E4952
:105050000E4D48F68F770B78002148F2800C0BE05C
:10506000CEB205EB8604D4F8002C3A40324342EA33
:105070000C02C4F8002C491C9942F1D3044940F0B9
:1050800080000860F0BD00002019002000500040A2
:105090004C5C004030B521F0010409490B6822F056
:1050A00001029BB203EBC0035D00064BEC500968A4
:1050B00089B201EBC00003EB4000826030BD00000C
:1050C000505C0040006000402DE9F043254D01296F
:1050D00012D002290ED1296889B201EBC0014B0020
:1050E00021490B445A602B689BB203EBC00001EBD3
:1050F0004000C260BDE8F08329681B4B89B201EB18
:10510000C0011B1D03EB410C530951085E1E4C1CD2
:105110004FF400493E2A07D91F465FEAC26800D112
:10512000B7B249EA872705E00F465FEAC27800D0A8
:105130002746BF02CCF800702D68ADB205EBC00069
:10514000094D0C3505EB40003E2A05D9D10600D1AA
:10515000B3B249EA832103E0D20700D02146890295
:105160000160C7E7505C00400060004081000648D5
:105170000144D1F8000C48F68F72104048F28012BA
:105180001043C1F8000C704700500040054A21F060
:105190000101126892B202EBC000034A02EB400028
:1051A00081607047505C0040006000400D4A12680A
:1051B0003E2992B202EBC0000B4A02EB400209D931
:1051C0004809C90601D1401E80B24FF4004141EAAE
:1051D000802004E04808C90700D0401C800210600D
:1051E00070470000505C00400C60004082000A489C
:1051F0000244D2F8000C4BF68F731840CB0401D553
:1052000080F48050890401D580F4005048F2800178
:105210000843C2F8000C7047005000408100074866
:105220000144D1F8000C4BF68F72104080F44050CE
:1052300048F280021043C1F8000C70470050004053
:10524000054A21F00101126892B202EBC000034A44
:1052500042F8101070470000505C004000600040B1
:10526000044A126892B202EBC000034A02EB40000B
:1052700041607047505C00400060004082000A4876
:105280000244D2F8000C48F6BF731840CB0601D593
:1052900080F01000890601D580F0200048F28001DE
:1052A0000843C2F8000C70470050004082000548D7
:1052B0000244D2F8000C48F68F1318400843C2F895
:1052C000000C7047005000400CB5002126480191A9
:1052D0000091026842F4803202604FF4A0630268D9
:1052E00002F400320092019A521C0192009A12B903
:1052F000019A9A42F3D10268920333D501210091B9
:105300001A490A6842F010020A600A6822F0030291
:105310000A600A6842F002020A604168416041681E
:105320004160416841F480614160416821F47C1131
:105330004160416841F4E8114160016841F08071C9
:10534000016001688901FCD5416821F003014160D9
:10535000416841F0020141604168C1F381010229C5
:10536000FAD10CBD00910CBD00100240002002409B
:1053700010B501210807FFF7F9FDFFF777FAFFF7EE
:10538000A7FA05F087F805F013F802494FF48040BA
:10539000086110BD0010014010B50020FFF746FE67
:1053A0000121BDE81040C805FFF7E0BD70B5164803
:1053B0000068174D0004C10B14480144098989B2E3
:1053C00000EB41042868017A09290FD02178017087
:1053D00061784170A088FEF717FF2968488020890E
:1053E000FEF712FF29688880A089C88028680121FB
:1053F0000172C08828B1FFF7DFF8BDE87040FFF701
:1054000077BDFFF7D5FCF8E7505C00400060004036
:10541000481A00202DE9F04138480068017811F061
:105420007F0102D0022905D066E0417A01F0DF0158
:1054300041724EE0418800295ED10179F1BB41798A
:10544000304D21F080040A0605EB84022C4BD2F883
:10545000002C03D5C2F30112120102E0C2F30132A3
:1054600012031E782346A64246D93AB3807A28B35F
:1054700008064FEA84000ED52844D0F8000CC0F38B
:105480000110012821D11846FEF7C6FF2046302121
:10549000FFF7F4FE19E04619D6F8000CC0F301300E
:1054A000012812D14BF68F7748F28008A4B1184634
:1054B000FEF79EFFD6F8000C384000E01CE080F4B8
:1054C000405040EA0800C6F8000C0F4800684069E8
:1054D00080470020BDE8F0810C4890F83010002093
:1054E000FFF764FED5F8000C384080F4405040EAE5
:1054F0000800C5F8000CE8E70220EBE7481A002096
:105500002019002000500040501A0020BC1000203C
:1055100010B5074C30B10748006800688047206824
:105520000A3010BD216801200882002010BD000053
:10553000481A0020501A0020054A13685A8A10B1F0
:105540000868104470478888801A188200207047C5
:10555000481A002010B5074C30B107480068806831
:10556000804720680C3010BD21680120088200208F
:1055700010BD0000481A0020501A0020204910B524
:10558000096860B11F48002202800A7853060AD0D9
:1055900002F07F02012A16D0022A16D001E0022072
:1055A0000882002010BD497A8A06027802D542F0AE
:1055B000020201E002F0FD0249060270D1B211D4EC
:1055C00001F0FE0110E00F4810BD4A7911071306E3
:1055D0000D4A02EB9161D1F8001C07D5C1F301110E
:1055E00006E0017841F00101017003E0C1F30131EF
:1055F0000129F6D00548006800698047E3E700000C
:10560000481A0020421A002000500040501A002082
:105610000A4810B500680A4AC1785278914203D806
:1056200082780AB982880AB1022010BD81720548C9
:10563000006840688047002010BD0000481A002024
:1056400020190020501A0020064810B50068417A41
:1056500041F02001417204480068C0698047002081
:1056600010BD0000481A0020501A002070B51D48D7
:105670001D4D0368597921F0800005EB80000C0670
:10568000D0F8004C21F0800203D5C4F301142401AA
:1056900002E0C4F301342403144D2D78954210D94F
:1056A0005A8872B96CB19A7A5AB10906D0F8001CBE
:1056B00048F2800207D548F6BF73194081F0100107
:1056C00006E0022070BD4BF68F73194081F48051C3
:1056D0001143C0F8001C064800688069804700201C
:1056E00070BD0000481A0020005000402019002022
:1056F000501A002010B50E4C0E4A20681268C1786E
:1057000092694079904721688A7A22B118B908795C
:1057100008B9887808B1022010BD07480068C06841
:10572000804720684179C172C1780173002010BDA3
:10573000481A00204C1A0020501A00204FF0E02197
:105740000428086903D020F004000861704740F085
:105750000400FAE7104910B5086898B10F480268CC
:105760001AB10168491E016003E064220260002250
:105770000A6002680A494FF40040322A01D24861A7
:1057800000E00861FFF7B8FA06480168002902D076
:105790000168491E016010BD18100020141000207F
:1057A00000100140E81900200F4810B5016841F0D1
:1057B0000101016041680D4A1140416001680C4AD5
:1057C00011400160016821F480210160416821F4E9
:1057D000FE0141604FF41F018160FFF775FD06492E
:1057E0000448086010BD0000001002400000FFF8EF
:1057F000FFFFF6FE0040000808ED00E038B509485C
:10580000002480F8144D400DFFF7C8FA25208DF8CC
:10581000000001208DF802008DF803406846FFF774
:105820008BFA38BD0FE000E010B501218C0720464F
:1058300000F023F828B10121204600F011F806F00D
:105840004FF90221204600F018F8002807D0022165
:10585000204600F005F8BDE8104006F041B910BD43
:10586000C943018270470029018802D041F001013B
:1058700001E021F001010180704702460020138AF7
:1058800092890B4202EA010202D0002A00D00120D4
:105890007047002A828901D00A4300E08A4382814E
:1058A0007047000030B502881B4B1C4C98420DD04D
:1058B000A0420BD0B0F1804F08D0194DA84205D0BE
:1058C000184DA84202D0184DA84203D122F070050D
:1058D0004A882A43154DA84206D0154DA84203D048
:1058E00022F44075CA882A4302808A8882850A8801
:1058F000028598420AD0A04208D00E4A904205D0B4
:105900000D4A904202D00D4A904201D1097A018697
:105910000121818230BD0000002C01400034014093
:105920000004004000080040000C0040001000404F
:105930000014004000400140004401400048014084
:10594000810006480144D1F8000C48F68F721040DF
:1059500048F2C0021043C1F8000C704700500040EC
:1059600010B50A4C40F22551204600F037F808B136
:1059700004F09CFD0821204600F029F8002804D0FE
:105980002046BDE8104000F0B7B810BD004400400C
:1059900010B5038A4FF2FF0213400A884C88224355
:1059A0008C88C9880C4322431A43028210BD00210F
:1059B000018041808180C18070470029818902D0A7
:1059C00041F4005101E021F4005181817047024609
:1059D000002012880A4200D00120704730B501F043
:1059E0001F0201240025C1F3421304FA02F2012B25
:1059F0000FD0022B0FD0838A4FEA11210088134267
:105A000004FA01F400EA040001D000B1012528469F
:105A100030BD8389F0E7038AEEE710B5C1F3421386
:105A200001F01F040121A140012B07D0022B07D058
:105A30001430002A026805D00A4304E00C30F8E76D
:105A40001030F6E78A43026010BD000030B504460E
:105A5000008A85B00D464CF6FF710840E988014385
:105A60002182A1894EF6F3100140A8882A891043AB
:105A70006A890A431043A081A08A4FF6FF4108407B
:105A8000A9890143A1826846FFF788FA1948844230
:105A900001D1039800E00298A189090400EBC0013C
:105AA00001EB0010296801D5490000E08900B0FB36
:105AB000F1F06422B0FBF2F109010B096FF0180557
:105AC0006B4300EB8300A3891D044FF0320306D51E
:105AD00003EBC000B0FBF2F000F0070005E003EBC1
:105AE0000010B0FBF2F000F00F000843208105B079
:105AF00030BD0000003801408088C0F308007047C6
:105B0000C1F30801818070474FF4165101600021F4
:105B10008180C18001810C22428181817047FEF722
:105B200079BB000006480549022201600A72064A54
:105B30000449C0E901120868004700008C270020D2
:105B4000481A0020BC1000202419002038B54FF45A
:105B5000C060FFF723F914208DF8000001248DF8B0
:105B600001408DF802408DF803406846FFF7E4F8E5
:105B700013208DF800008DF8014000208DF8020000
:105B80008DF803406846FFF7D7F838BD38B54FF4B5
:105B9000C060FFF703F914208DF8000001248DF890
:105BA00001408DF8024000258DF803506846FFF74C
:105BB000C3F813208DF800008DF801408DF80250D5
:105BC0008DF803506846FFF7B7F838BD70B50D4D36
:105BD00028680D4C208020880C4E31880840000435
:105BE00001D5FEF757FB208831880840400507D5CE
:105BF0004FF6FF30286006484068BDE87040004717
:105C000070BD0000445C0040A4100020541A002025
:105C1000BC100020FFF7DABF0549002008600549E5
:105C20004FF4044008800249091F086000207047B3
:105C3000445C0040541A002070B500F07F060D4609
:105C40003046FEF709FF04463046FEF7F5FE0146F2
:105C500022462846FFF73AF9204670BD70B500F09D
:105C60007F0514460E462846FEF706FF0146A2B2FF
:105C7000304600F01BF8A1B22846FFF7F1FA0020E9
:105C800070BD10B500214FF08050FFF76FF9002173
:105C90004FF40000FFF76AF9FEF7E8FDFFF776FF23
:105CA000BDE81040FFF7AABDFEE70000094B10B5A4
:105CB000521C520803EB41010AD000BF10F8013B0F
:105CC000521E10F8014B43EA042321F8043BF5D19E
:105CD00010BD00000060004002E008C8121F08C1AB
:105CE000002AFAD170477047002001E001C1121F5D
:105CF000002AFBD1704700000246002004E000BFEC
:105D000012F8013B1844C0B2491EF9D27047000096
:105D1000154910B5002209681346CC2804D0212863
:105D200009D020280ED01DE04B8210488861002049
:105D300000F04EF814E0087800F07F00212811D11F
:105D40000B4A08E0087800F07F00212800D1094ABA
:105D5000094C202020702AB18A614B820020904794
:105D6000002010BD022010BD481A0020D15D00089F
:105D7000B15F0008CD5F0008A81000200149FFF7BF
:105D8000DBBB0000B41000200149FFF7D5BB0000C9
:105D9000F01000201CB5044AD2E90012CDE900122F
:105DA0006946FFF7C9FB1CBD20CA000806490968FF
:105DB000C978052903D9EE2901D000207047034A8C
:105DC00002EBC101FFF7B8BB481A002020110020E8
:105DD000064909688988090A052904DC044A02EB96
:105DE000C101FFF7A9BB002070470000481A00203E
:105DF000F010002009B9002800D0022070470000F0
:105E0000034900200968097801F07F01704700000C
:105E1000481A002070B55748002100688172C1728D
:105E20005549C97941720020FFF708F94FF4007114
:105E30000020FFF73BFA10210020FFF71FFA18217E
:105E40000020FFF7A3F958210020FFF7F9F90020FF
:105E5000FEF7F6FA494C002014F8301FFFF7A6F9B8
:105E60000020FFF7DBF901210846FFF71FFAA02108
:105E70000120FFF78BF9E0210120FFF7E1F9402134
:105E80000120FFF793F94FF4405529460120FFF711
:105E9000ADF920210120FFF7F1F902210846FFF7B3
:105EA00005FA0220FFF762F9E022A0210220FFF7A5
:105EB000F1F8402201210220FFF706F90220FEF747
:105EC00097FA0220FEF7A8FA0220FFF739FD2946CB
:105ED0000220FFF78BF900210220FFF7CFF9E9102C
:105EE0000420FFF7E3F94FF4907631460420FFF7E2
:105EF000A7F900210420FFF779F920210420FFF7FA
:105F0000BDF905210846FFF7D1F94FF4B07105201E
:105F1000FFF73CF931460520FFF792F940210520B3
:105F2000FFF744F929460520FFF760F920210520F5
:105F3000FFF7A4F906210846FFF7B8F94FF480717E
:105F40000620FFF77DF900210620FFF74FF92021F9
:105F50000620FFF793F921780020FFF727F90020AA
:105F6000FFF75CF90020FFF771F805490120086090
:105F700070BD0000481A002034C80008BC10002082
:105F80004819002001490420086070474819002082
:105F900010B5054C2078202804D1201D04F02CFADF
:105FA0000020207010BD0000A810002070470000E5
:105FB00008B1044870470449082009680882002095
:105FC00070470000AC100020481A002008B10448B7
:105FD00070470449082009680882002070470000C3
:105FE000AC100020481A0020034800218170A0F660
:105FF0007C31416070470000582600207047704790
:1060000012010002EF020140BF3210B2230201026E
:1060100003010000204810B50068807A012812D0E2
:10602000002838D00520FEF7F7F90420FEF7F4F930
:106030000520FEF7DDF90420FFF782FCBDE81040E3
:106040000520FFF77DBC1549052008600620FEF7F6
:10605000E3F90520FEF7E0F90420FEF7DDF905205D
:10606000FEF7C6F90220FEF7C3F90220FEF7D4F9C5
:106070000420FFF765FC0520FFF762FC0220FFF714
:106080005FFC07484FF48041016149004161BDE870
:10609000104004F08DB910BD481A002048190020A6
:1060A0000010014070B5C006D2061E46000E140E48
:1060B000049D00F02DFB314620461DB1BDE8704027
:1060C00000F072B9BDE8704000F04EB870B5C0067F
:1060D000D2061E46000E140E049D00F0E5FB31466C
:1060E00020461DB1BDE8704000F022BABDE8704006
:1060F00000F0CEB800BF00BF00210648C0F88411F0
:1061000000F5C27000BF00BF0121016000BF00BFE9
:10611000704700000000214270B5084C0020C4F810
:106120008401074D04F5C2746868FEF718FB01206E
:1061300020606868BDE87040FEF711BB0000214296
:10614000E019002000BF00BF00210648C0F88411FC
:1061500000F5C27000BF00BF0121016000BF00BF99
:1061600070470000000021422DE9F05F88460028BA
:106170007DD0C40800F00706FFF7BCFF424D0027A2
:10618000C5F8947105F5CA75FFF7B4FFFFF7B2FFC4
:10619000FFF7B0FF4FF0010BC5F800B0FFF7AAFF03
:1061A000FFF7A8FFFFF7A6FF2F60FFF7A3FFFFF79A
:1061B000A1FFFFF79FFF2F60A5F5CA75FFF79AFFB4
:1061C000FFF798FFAA4621E00027082544EA0609C0
:1061D0007F08FFF78FFFB9F1000F03D1012D01D127
:1061E000CAF894B1FFF786FFFFF784FF02F040FA88
:1061F00026480068800601D547F0800702F04EFA75
:106200006D1E15F0FF05E3D108F8017B641EE4B2B2
:10621000DAD2FEB11D4F002435466408FFF76AFF4D
:10622000012D01D1CAF894B1FFF764FFFFF762FFB7
:1062300002F01EFA3868800601D544F0800402F0AE
:106240002DFA6D1E15F0FF05E7D1C6F10800C44018
:1062500088F80040FFF74EFF5446CAF894B1FFF7A4
:1062600049FFFFF747FFFFF745FF002000E009E087
:10627000C4F89401FFF73EFFFFF73CFFBDE8F05F75
:1062800000F01ABABDE8F09F000021420808014062
:106290002DE9F05F884600287DD0C40800F007068D
:1062A000FFF73AFF3E4D0027C5F8947105F5CA7512
:1062B000FFF732FFFFF730FFFFF72EFF4FF0010B24
:1062C000C5F800B0FFF728FFFFF726FFFFF724FF10
:1062D0002F60FFF721FFFFF71FFFFFF71DFF2F6064
:1062E000A5F5CA75FFF718FFFFF716FFAA461DE0D0
:1062F0000027082544EA06097F08FFF70DFFB9F1DA
:10630000000F03D1012D01D1CAF894B1FFF704FFAA
:10631000FFF702FF23480068800601D547F0800799
:106320006D1E15F0FF05E7D108F8017B641EE4B28D
:10633000DED2DEB11B4F002435466408FFF7ECFEC9
:10634000012D01D1CAF894B1FFF7E6FEFFF7E4FE94
:106350003868800601D544F080046D1E15F0FF05F5
:10636000EBD1C6F10800C44088F80040FFF7D4FE26
:106370005446CAF894B1FFF7CFFEFFF7CDFEFFF702
:10638000CBFE0020C4F89401FFF7C6FEFFF7C4FE61
:10639000BDE8F05F00E001E000F0A4B9BDE8F09FC7
:1063A00000002142080801402DE9F04788460028F6
:1063B0007DD0C70800F00706FFF79CFE5B4C002568
:1063C000C4F8945104F5CA74FFF794FEFFF792FEE7
:1063D000FFF790FE4FF0010AC4F800A0FFF78AFE15
:1063E000FFF788FEFFF786FE2560FFF783FEFFF7C5
:1063F00081FE256060E000BF18F8010BC04300F08B
:10640000FF09FFF777FEC4F8945104F5CA74FFF74B
:1064100071FEFFF76FFEC4F800904FEA5909FFF7CD
:1064200069FE2560FFF766FEFFF764FEC4F8009082
:106430004FEA5909FFF75EFE2560FFF75BFEFFF7A5
:1064400059FEC4F800904FEA5909FFF753FE256042
:10645000FFF750FEFFF74EFEC4F800904FEA5909CF
:10646000FFF748FE2560FFF745FEFFF743FEC4F83F
:1064700000904FEA5909FFF73DFE2560FFF73AFE0D
:10648000FFF738FEC4F800904FEA5909FFF732FED3
:106490002560FFF72FFEFFF72DFEC4F800904FEAAE
:1064A0005909FFF727FE2560FFF724FE00E03AE0D8
:1064B000FFF720FEC4F800907F1EA4F5CA74FFB257
:1064C0009AD29EB198F80000C043C7B20BE000BF5B
:1064D000FFF710FEC4F89451FFF70CFEFFF70AFE19
:1064E000C4F894717F08761EF6B2F1D2FFF702FE6F
:1064F0005646C4F894A104F5CA74FFF7FBFDFFF7F4
:10650000F9FDFFF7F7FD2660FFF7F4FDFFF7F2FD59
:10651000FFF7F0FD2560FFF7EDFDFFF7EBFDBDE8B0
:10652000F04700F0C9B8BDE8F08700000000214244
:106530002DE9F047884600287DD0C70800F00706FF
:10654000FFF7EAFD5B4C0025C4F8945104F5CA74CA
:10655000FFF7E2FDFFF7E0FDFFF7DEFD4FF0010A78
:10656000C4F800A0FFF7D8FDFFF7D6FDFFF7D4FD74
:106570002560FFF7D1FDFFF7CFFD256060E000BF8C
:1065800018F8010BC04300F0FF09FFF7C5FDC4F880
:10659000945104F5CA74FFF7BFFDFFF7BDFDC4F8C1
:1065A00000904FEA5909FFF7B7FD2560FFF7B4FDEA
:1065B000FFF7B2FDC4F800904FEA5909FFF7ACFDB0
:1065C0002560FFF7A9FDFFF7A7FDC4F800904FEA8B
:1065D0005909FFF7A1FD2560FFF79EFDFFF79CFD20
:1065E000C4F800904FEA5909FFF796FD2560FFF7C0
:1065F00093FDFFF791FDC4F800904FEA5909FFF7AA
:106600008BFD2560FFF788FDFFF786FDC4F800903D
:106610004FEA5909FFF780FD2560FFF77DFDFFF781
:106620007BFDC4F800904FEA5909FFF775FD25601E
:10663000FFF772FD00E03AE0FFF76EFDC4F800904E
:106640007F1EA4F5CA74FFB29AD29EB198F80000DA
:10665000C043C7B20BE000BFFFF75EFDC4F8945122
:10666000FFF75AFDFFF758FDC4F894717F08761EB6
:10667000F6B2F1D2FFF750FD5646C4F894A104F5E6
:10668000CA74FFF749FDFFF747FDFFF745FD266098
:10669000FFF742FDFFF740FDFFF73EFD2560FFF7E6
:1066A0003BFDFFF739FDBDE8F04700F01BB8BDE842
:1066B000F087000000002142094810B5016A046A11
:1066C000C1F3C45161F3DF0406E000BFFFF712FD20
:1066D000FFF710FDFFF70EFD641EE4B2F6D210BD09
:1066E000B01A0020094810B5016A046AC1F3C45108
:1066F00061F3DF0406E000BFFFF70EFDFFF70CFDBE
:10670000FFF70AFD641EE4B2F6D210BDB01A0020F5
:106710002DE9F047884600287ED0C70800F007061C
:10672000FFF7E8FC5F4C0025C4F8945104F5CA74E7
:10673000FFF7E0FCFFF7DEFCFFF7DCFC4FF0010A9F
:10674000C4F800A0FFF7D6FCFFF7D4FCFFF7D2FC9B
:10675000C4F800A0FFF7CEFCFFF7CCFC2560FFF7E4
:10676000C9FCFFF7C7FCFFF7C5FC256060E000BF70
:1067700018F8010BC04300F0FF09FFF7BBFCC4F899
:10678000945104F5CA74FFF7B5FCFFF7B3FCC4F8E5
:1067900000904FEA5909FFF7ADFC2560FFF7AAFC0E
:1067A000FFF7A8FCC4F800904FEA5909FFF7A2FCD4
:1067B0002560FFF79FFCFFF79DFCC4F800904FEAAF
:1067C0005909FFF797FC2560FFF794FCFFF792FC4F
:1067D000C4F800904FEA5909FFF78CFC2560FFF7D9
:1067E00089FCFFF787FCC4F800904FEA5909FFF7CE
:1067F00081FC2560FFF77EFCFFF77CFCC4F800906D
:106800004FEA5909FFF776FC2560FFF773FCFFF7A5
:1068100071FCC4F8009000E041E04FEA5909FFF72D
:1068200069FC2560FFF766FCFFF764FCC4F8009084
:106830007F1EA4F5CA74FFB29AD29EB198F80000E8
:10684000C043C7B20BE000BFFFF754FCC4F894513B
:10685000FFF750FCFFF74EFCC4F894717F08761EDA
:10686000F6B2F1D2FFF746FC5646C4F894A104F5FF
:10687000CA74FFF73FFCFFF73DFCFFF73BFC2660C7
:10688000FFF738FCFFF736FCFFF734FC2560FFF715
:1068900031FCFFF72FFCBDE8F047FFF70DBFBDE867
:1068A000F0870000000021422DE9F04788460028CB
:1068B0007ED0C70800F00706FFF72EFC5F4C0025CE
:1068C000C4F8945104F5CA74FFF726FCFFF724FCC2
:1068D000FFF722FC4FF0010AC4F800A0FFF71CFCF0
:1068E000FFF71AFCFFF718FCC4F800A0FFF714FC30
:1068F000FFF712FCFFF710FC2560FFF70DFCFFF718
:106900000BFC256060E000BF18F8010BC04300F0ED
:10691000FF09FFF701FCC4F8945104F5CA74FFF7AE
:10692000FBFBFFF7F9FBC4F800904FEA5909FFF7AA
:10693000F3FB2560FFF7F0FBFFF7EEFBC4F80090D8
:106940004FEA5909FFF7E8FB2560FFF7E5FBFFF782
:10695000E3FBC4F800904FEA5909FFF7DDFB25601F
:10696000FFF7DAFBFFF7D8FBC4F800904FEA5909AC
:10697000FFF7D2FB2560FFF7CFFBFFF7CDFBC4F895
:1069800000904FEA5909FFF7C7FB2560FFF7C4FBEA
:10699000FFF7C2FBC4F800904FEA5909FFF7BCFBB0
:1069A0002560FFF7B9FBFFF7B7FBC4F8009000E0E4
:1069B00041E04FEA5909FFF7AFFB2560FFF7ACFB59
:1069C000FFF7AAFBC4F800907F1EA4F5CA74FFB2BB
:1069D0009AD29EB198F80000C043C7B20BE000BF46
:1069E000FFF79AFBC4F89451FFF796FBFFF794FB6F
:1069F000C4F894717F08761EF6B2F1D2FFF78CFBD3
:106A00005646C4F894A104F5CA74FFF785FBFFF756
:106A100083FBFFF781FB2660FFF77EFBFFF77CFB24
:106A2000FFF77AFB2560FFF777FBFFF775FBBDE803
:106A3000F047FFF757BEBDE8F08700000000214295
:106A400070B51C46DDE9046518B111B10AB100F05A
:106A500041FB002C0AD0002E08D0002D06D02A467B
:106A600031462046BDE8704000F018B870BD70B5E2
:106A70001C46DDE9046518B111B10AB100F0C6FC8D
:106A8000002C0AD0002E08D0002D06D02A46314610
:106A90002046BDE8704000F08FB970BD2DE9FF5F62
:106AA0001446884600287CD000F00706C7080296E6
:106AB000FFF720FBBE4D4FF00009C5F8949105F596
:106AC000CA75FFF717FBFFF715FBFFF713FB012054
:106AD0002860FFF70FFBFFF70DFBFFF70BFBC5F877
:106AE0000090FFF707FBFFF705FBFFF703FBC5F877
:106AF0000090FFF7FFFAFFF7FDFADFF8B8A2CB46E8
:106B0000EDE000BF18F8010BA94DC043C0B20090E2
:106B100000F00100C5F8940105F5CA75FFF7EAFA1F
:106B2000C5F800B0FFF7E6FAFFF7E4FA01F0A0FDC0
:106B3000207840082070DAF800204FF0800909EA38
:106B400082010843207000984008009001F0A6FDE3
:106B5000009800F001002860FFF7CCFAC5F800B0FB
:106B6000FFF7C8FAFFF7C6FA01F082FD2078400867
:106B70002070DAF8002009EA8201084320700098AA
:106B80004008009001F08AFD009800F001002860A4
:106B9000FFF7B0FAC5F800B0FFF7ACFAFFF7AAFAB2
:106BA00000E002E101F064FD207840082070DAF88E
:106BB000002009EA820108432070009840080090F4
:106BC00001F06CFD009800F001002860FFF792FAD8
:106BD000C5F800B0FFF78EFAFFF78CFA01F048FD18
:106BE000207840082070DAF8002009EA8201084382
:106BF000207000984008009001F050FD009800F0CF
:106C000001002860FFF776FAC5F800B0FFF772FAC6
:106C1000FFF770FA01F02CFD207840082070DAF8B8
:106C2000002009EA82010843207000984008009083
:106C300001F034FD009800F001002860FFF75AFAD7
:106C4000C5F800B0FFF756FAFFF754FA01F010FD4F
:106C5000207840082070DAF8002009EA8201084311
:106C6000207000984008009001F018FD009800F096
:106C700001002860FFF73EFAC5F800B0FFF73AFAC6
:106C8000FFF738FA01F0F4FC207840082070DAF8B9
:106C9000002009EA8201084320700098450801F0AD
:106CA000FDFC57EA06004248C0F8945125D0FFF792
:106CB00021FA58463E49C1F89401FFF71BFAFFF745
:106CC00019FA01F0D5FC207840082070DAF800208D
:106CD00009EA82010843207001F0E0FC641C7F1E79
:106CE000FFB2BFF40FAF4EB398F80000304DC04371
:106CF000C7B2D1464FF080084EE0FFF7FBF9012004
:106D0000D8E700BFFFF7F6F90120C5F89401FFF7B7
:106D1000F1F9FFF7EFF901F0ABFC207840082070A3
:106D2000D9F8002008EA82010843207001F0B6FC7F
:106D300002992078C1F10801C8402070FFF7DAF904
:106D40001B4C0120C4F8940104F5CA74FFF7D2F972
:106D5000FFF7D0F9FFF7CEF9C4F800B0FFF7CAF992
:106D6000FFF7C8F9BDE8FF5FFFF7A6BCFFF7C2F960
:106D7000C5F894B1FFF7BEF9FFF7BCF901F078FC54
:106D8000207840082070D9F800207F0808EA8201A6
:106D90000843207001F082FC761E07F0010016F017
:106DA000FF06C5F89401E1D1ACE7BDE8FF9F000004
:106DB00000002142080801402DE9FF5F1446884683
:106DC00000287CD000F00706C7080296FFF7A4F958
:106DD000BE4D4FF00009C5F8949105F5CA75FFF74F
:106DE0009BF9FFF799F9FFF797F901202860FFF762
:106DF00093F9FFF791F9FFF78FF9C5F80090FFF7C6
:106E00008BF9FFF789F9FFF787F9C5F80090FFF7CD
:106E100083F9FFF781F9DFF8B8A2CB46EDE000BFB8
:106E200018F8010BA94DC043C0B2009000F001005A
:106E3000C5F8940105F5CA75FFF76EF9C5F800B0FD
:106E4000FFF76AF9FFF768F901F012FC20784008B3
:106E50002070DAF800204FF0800909EA8201084327
:106E6000207000984008009001F018FC009800F095
:106E700001002860FFF750F9C5F800B0FFF74CF9A2
:106E8000FFF74AF901F0F4FB207840082070DAF8A7
:106E9000002009EA82010843207000984008009011
:106EA00001F0FCFB009800F001002860FFF734F9C6
:106EB000C5F800B0FFF730F9FFF72EF900E002E166
:106EC00001F0D6FB207840082070DAF8002009EAAB
:106ED00082010843207000984008009001F0DEFB1A
:106EE000009800F001002860FFF716F9C5F800B01F
:106EF000FFF712F9FFF710F901F0BAFB207840080C
:106F00002070DAF8002009EA820108432070009816
:106F10004008009001F0C2FB009800F001002860DA
:106F2000FFF7FAF8C5F800B0FFF7F6F8FFF7F4F846
:106F300001F09EFB207840082070DAF8002009EA72
:106F400082010843207000984008009001F0A6FBE1
:106F5000009800F001002860FFF7DEF8C5F800B0E7
:106F6000FFF7DAF8FFF7D8F801F082FB2078400845
:106F70002070DAF8002009EA8201084320700098A6
:106F80004008009001F08AFB009800F001002860A2
:106F9000FFF7C2F8C5F800B0FFF7BEF8FFF7BCF87E
:106FA00001F066FB207840082070DAF8002009EA3A
:106FB0008201084320700098450801F06FFB57EAF2
:106FC00006004248C0F8945125D0FFF7A5F858466E
:106FD0003E49C1F89401FFF79FF8FFF79DF801F0D3
:106FE00047FB207840082070DAF8002009EA820187
:106FF0000843207001F052FB641C7F1EFFB2BFF4F7
:107000000FAF4EB398F80000304DC043C7B2D14621
:107010004FF080084EE0FFF77FF80120D8E700BF6F
:10702000FFF77AF80120C5F89401FFF775F8FFF72C
:1070300073F801F01DFB207840082070D9F800207B
:1070400008EA82010843207001F028FB02992078A9
:10705000C1F10801C8402070FFF75EF81B4C012009
:10706000C4F8940104F5CA74FFF756F8FFF754F812
:10707000FFF752F8C4F800B0FFF74EF8FFF74CF8EE
:10708000BDE8FF5FFFF72EBBFFF746F8C5F894B1E8
:10709000FFF742F8FFF740F801F0EAFA20784008DD
:1070A0002070D9F800207F0808EA82010843207088
:1070B00001F0F4FA761E07F0010016F0FF06C5F89D
:1070C0009401E1D1ACE7BDE8FF9F00000000214240
:1070D000080801402DE9FF5F1446884600287DD04E
:1070E00000F00706C7080296FFF704F8C54D4FF0F9
:1070F000000BD946C5F894B105F5CA75FEF7FAFF3D
:10710000FEF7F8FFFEF7F6FF4FF0010AC5F800A002
:10711000FEF7F0FFFEF7EEFFFEF7ECFFC5F800A06C
:10712000FEF7E8FFFEF7E6FFFEF7E4FFC5F8009084
:10713000FEF7E0FFFEF7DEFFFEF7DCFFC5F800908C
:10714000FEF7D8FFFEF7D6FFDFF8BC924FF0800ABB
:10715000EBE000BF18F8010BAA4DC043C0B200908D
:1071600000F00100C5F8940105F5CA75FEF7C2FFED
:10717000C5F800B0FEF7BEFFFEF7BCFF01F078FADD
:10718000207840082070D9F800200AEA82010843DC
:10719000207000984008009001F080FA009800F0FC
:1071A00001002860FEF7A6FFC5F800B0FEF7A2FFB9
:1071B000FEF7A0FF01F05CFA207840082070D9F8B3
:1071C00000200AEA820108432070009840080090DD
:1071D00001F064FA009800F0010000E00FE128607F
:1071E000FEF788FFC5F800B0FEF784FFFEF782FFC8
:1071F00001F03EFA207840082070D9F800200AEA11
:1072000082010843207000984008009001F046FA7F
:10721000009800F001002860FEF76CFFC5F800B090
:10722000FEF768FFFEF766FF01F022FA20784008BB
:107230002070D9F800200AEA8201084320700098E3
:107240004008009001F02AFA009800F00100286040
:10725000FEF750FFC5F800B0FEF74CFFFEF74AFFFF
:1072600001F006FA207840082070D9F800200AEAD8
:1072700082010843207000984008009001F00EFA47
:10728000009800F001002860FEF734FFC5F800B058
:10729000FEF730FFFEF72EFF01F0EAF920784008F4
:1072A0002070D9F800200AEA820108432070009873
:1072B0004008009001F0F2F9009800F00100286009
:1072C000FEF718FFC5F800B0FEF714FFFEF712FF37
:1072D00001F0CEF9207840082070D9F800200AEAA1
:1072E0008201084320700098450801F0D7F957EA59
:1072F00006004448C0F8945124D0FEF7FBFE5846DF
:107300004049C1F89401FEF7F5FEFEF7F3FE01F0E7
:10731000AFF9207840082070D9F800200AEA8201ED
:107320000843207001F0BAF9641C7F1EFFB2BFF45D
:1073300011AF66B398F80000DFF8C880C043C5B24B
:10734000574657E0FEF7D6FE0120D9E705F00100C9
:107350004546C8F89401FEF7CDFE0120C5F894011A
:10736000FEF7C8FEFEF7C6FE01F082F9207840085D
:107370002070D9F8001007EA81010843207001F05D
:107380008DF902992078C1F10801C8402070FEF7FC
:10739000B1FE1C4C0120C4F8940104F5CA74FEF738
:1073A000A9FEFEF7A7FEFEF7A5FEC4F800B0FEF7A3
:1073B000A1FEFEF79FFEBDE8FF5FFFF77DB900BFAE
:1073C00005F00101C8F89411FEF794FEC8F894B1D5
:1073D000FEF790FEFEF78EFE01F04AF92078400895
:1073E0002070D9F800106D0807EA81010843207069
:1073F00001F054F9761E16F0FF06E1D1A6E7BDE8CC
:10740000FF9F000000002142080801402DE9FF5FB6
:107410001446884600287DD000F00706C70802966B
:10742000FEF77AFEC54D4FF0000BD946C5F894B172
:1074300005F5CA75FEF770FEFEF76EFEFEF76CFEF0
:107440004FF0010AC5F800A0FEF766FEFEF764FEE5
:10745000FEF762FEC5F800A0FEF75EFEFEF75CFEDA
:10746000FEF75AFEC5F80090FEF756FEFEF754FEF2
:10747000FEF752FEC5F80090FEF74EFEFEF74CFEFA
:10748000DFF8BC924FF0800AEBE000BF18F8010B68
:10749000AA4DC043C0B2009000F00100C5F89401AD
:1074A00005F5CA75FEF738FEC5F800B0FEF734FEE4
:1074B000FEF732FE01F0DCF8207840082070D9F8A1
:1074C00000200AEA820108432070009840080090DA
:1074D00001F0E4F8009800F001002860FEF71CFEBF
:1074E000C5F800B0FEF718FEFEF716FE01F0C0F872
:1074F000207840082070D9F800200AEA8201084369
:10750000207000984008009001F0C8F8009800F042
:10751000010000E00FE12860FEF7FEFDC5F800B0B5
:10752000FEF7FAFDFEF7F8FD01F0A2F8207840081A
:107530002070D9F800200AEA8201084320700098E0
:107540004008009001F0AAF8009800F001002860BF
:10755000FEF7E2FDC5F800B0FEF7DEFDFEF7DCFD4C
:1075600001F086F8207840082070D9F800200AEA57
:1075700082010843207000984008009001F08EF8C6
:10758000009800F001002860FEF7C6FDC5F800B0C5
:10759000FEF7C2FDFEF7C0FD01F06AF82078400852
:1075A0002070D9F800200AEA820108432070009870
:1075B0004008009001F072F8009800F00100286087
:1075C000FEF7AAFDC5F800B0FEF7A6FDFEF7A4FD84
:1075D00001F04EF8207840082070D9F800200AEA1F
:1075E00082010843207000984008009001F056F88E
:1075F000009800F001002860FEF78EFDC5F800B08D
:10760000FEF78AFDFEF788FD01F032F82078400889
:107610002070D9F800200AEA8201084320700098FF
:10762000450801F03BF857EA06004448C0F8945179
:1076300024D0FEF771FD58464049C1F89401FEF789
:107640006BFDFEF769FD01F013F82078400820700B
:10765000D9F800200AEA82010843207001F01EF8E0
:10766000641C7F1EFFB2BFF411AF66B398F8000030
:10767000DFF8C880C043C5B2574657E0FEF74CFD5F
:107680000120D9E705F001004546C8F89401FEF74E
:1076900043FD0120C5F89401FEF73EFDFEF73CFDD9
:1076A00000F0E6FF207840082070D9F8001007EAC3
:1076B00081010843207000F0F1FF02992078C1F1A8
:1076C0000801C8402070FEF727FD1C4C0120C4F8BB
:1076D000940104F5CA74FEF71FFDFEF71DFDFEF7C9
:1076E0001BFDC4F800B0FEF717FDFEF715FDBDE861
:1076F000FF5FFEF7F7BF00BF05F00101C8F8941166
:10770000FEF70AFDC8F894B1FEF706FDFEF704FD8A
:1077100000F0AEFF207840082070D9F800106D0806
:1077200007EA81010843207000F0B8FF761E16F0CA
:10773000FF06E1D1A6E7BDE8FF9F0000000021425F
:10774000080801402DE9F047DFF828814A4C08F687
:107750006C3098F80110626AC1F3411798F8025032
:107760000021904708F67C367378042005214FF0FD
:10777000000906229BB308F103076B0926D0B0EB82
:10778000551F05D0B1EB551F02D0B2EB551F60D18C
:10779000394900223C31E369012098470122E3691D
:1077A000394610469847226A294683209047314837
:1077B0002C38406800EB8000C000FCF7D0FF0122AD
:1077C0002D49E3693C311046984742E0E3690122C4
:1077D000394628469847484686F80D9038E0FFE736
:1077E000B046B668682306F8013B6B0906F8019BB2
:1077F00037D0B0EB551F05D0B1EB551F02D0B2EB1F
:10780000551F14D11C4900223C31E36901209847DF
:10781000226A2946822090470022E36931460120EE
:1078200098470122144910463C31E3699847032FD9
:107830001BD004208519D8F8080046460621FEF71B
:107840005BFA287016206870032F10D000200830D3
:107850003061626A012109489047BDE8F047FEF7B0
:10786000C3BB002231462846DFE70820E2E70420B8
:10787000EDE70000DC1A00204C190020482600200B
:10788000F8B52B4909220878012600F06007A1F617
:107890007C30002F02D04FF00A0301E04FF00603C6
:1078A0004C68A4EB000407D0C25C4FEA42054FF0DD
:1078B0000D0205F1020502E0C55C05F1010502EBD0
:1078C0008502A24231D848601B4E1A4C0020726BD0
:1078D000214690470FB1093400E0641DB0781028AC
:1078E00007D013491920503908700820B268904712
:1078F00015E04FF4C85002F081FFADF80000694672
:107900001020F3E721462FB1F26840209047083459
:10791000AD1E04E0F26820209047241D6D1E002D4E
:10792000F0D1BDE8F840FEF75FBB8E70F8BD0000F7
:1079300058260020DE1A00204C1900202DE9F047BF
:107940001B481C4C002687780125C4F88451DFF8B9
:107950006890D9F800008000FCF701FFAA464FF0BC
:1079600000084D4614E0D146C4F894A12868800070
:10797000FCF7F5FEC4F8948128688000FCF7EFFE60
:10798000C4F8949128688000FCF7E9FE761CF6B2F2
:10799000B6EB570FE7D328688000FCF7E0FEC4F889
:1079A00084810A20FCF7DBFEBDE8F047FEF71CBB34
:1079B000DC1A002000002142E41900202DE9F041EA
:1079C00011480024114FC1780279867841EA0221DA
:1079D0004279807941EA024141EA0065DFF830806E
:1079E00008E000BFC7F89451D8F8140080476D082C
:1079F000641CE4B2B442F5D30A20FCF7B0FEBDE843
:107A0000F041FEF7F1BA0000DC1A0020000021422C
:107A10004C19002070B5224C00202169002915D096
:107A20000025257300E0401C21698142FBD82069B4
:107A300068B12069402822D82269A1688620FEF713
:107A40000DF930210620FDF719FC256170BDA168F4
:107A500068200870607BA1684870607BA16868300E
:107A60008870A1681620C870A16804228620FEF7DD
:107A7000F5F8BDE8704030210620FDF7FFBBA16896
:107A800040228620FEF7EAF830210620FDF7F6FBBB
:107A9000206940382061A0684030A06070BD0000BF
:107AA0005826002070B50220FCF79CFF4006144DBC
:107AB0004FF001014FF0020009D5FCF7BDFE022096
:107AC000FCF79AFFC4B268682246A02108E0FCF7E0
:107AD000B3FE0220FCF7A0FFC4B268682246E02192
:107AE000FDF7F4F96868204468604FF40051022003
:107AF000FDF77CFBFEF74AF802490120487070BD93
:107B0000582600204C1900202DE9F84F294D2A4F06
:107B1000A878ED1C401C4FEAD008B878102805D191
:107B2000287800F0FC0002F069FE287005EB0803DD
:107B3000224C13F8010B401CC60860784FF0000A75
:107B400058B1012029460090BD6932464046A847F9
:107B500084F80DA0C4F810A022E0A146A468682013
:107B6000FF2104F8010B01EBC60104F801AB5046FC
:107B700004F8011B29789F2916D029460090BD6979
:107B8000234632464046A847D9F8080034444D46BB
:107B9000F11CFEF7B1F8207016206070761D2E6182
:107BA000BDE8F84FFEF720BAF0063A69000E21460C
:107BB0009047E9E7DC1A00204C19002058260020E5
:107BC00010B5FCF767FF0948002400688472FDF7D0
:107BD000B1F9FEF721F807480549C0F870171221DE
:107BE000A0F874170448046010BD0000481A002073
:107BF0004DC9000820110020481900202DE9F84F38
:107C000001210C20FDF7BEF90220ADF8000010277D
:107C10008DF803700320DFF8ECB08DF802006946A0
:107C20005846FCF78DFE2020ADF800006946584606
:107C3000FCF786FE7801DFF8D0A0ADF800006946B9
:107C40005046FCF77DFE0126ADF8006069465846B7
:107C5000FCF776FE3002ADF8000069465046FCF7AE
:107C60006FFE8024ADF8004069465046FCF768FE80
:107C7000ADF8004069465846FCF762FE4025ADF875
:107C8000005069465846FCF75BFEADF80050694667
:107C90005046FCF755FE4FF40068ADF80080694689
:107CA0005046FCF74DFE4FF48069ADF800906946F0
:107CB0005046FCF745FEADF8007048208DF80300F3
:107CC00069465846FCF73CFE10490020C1F8840183
:107CD000C1F894010E4AC2F8A401C1F88061C2F84B
:107CE000A061094810300460064810300460001D8F
:107CF0000560054814300560C0F80080C0F80090A9
:107D0000BDE8F88F00080140000C0140000021424E
:107D10000080214201484078704700004C19002043
:107D200070B5C006D2061E46000E140E049D00F06B
:107D300045FB314620461DB1BDE8704000F07CB9DE
:107D4000BDE8704000F034B870B5C006D2061E46DB
:107D5000000E140E049D00F0D5FB314620461DB1E7
:107D6000BDE8704000F074BABDE8704000F0D2B8D1
:107D700070B5084C0020C4F88401074D04F5C274A6
:107D80006868FCF7ECFC012020606868BDE8704082
:107D9000FCF7E5BC00002142E01900200348002167
:107DA000C0F884110121C0F88411704700002142FD
:107DB0002DE9F047544C4FF0000A0E46C70800F07A
:107DC0000709D046C4F894A1C4F884A10125C4F8D9
:107DD0008451C4F89451C4F884A1C4F88451C4F8FF
:107DE0009451C4F884A1C4F88451C4F89451C4F8DF
:107DF00084A1C4F88451C4F89451C4F88481C4F8AF
:107E0000845104F5C27400F033FC0020C4F80080F3
:107E100025603E49DFF8F880A4F5C274097889B37B
:107E20000022D44614E00821C4F884C1C4F8845167
:107E3000D8F8003040089B0601D540F08000491E6C
:107E400011F0FF01F0D106F8010B0020521CD2B254
:107E5000BA42E8D3B9F1000140D000BFC4F884C1F0
:107E6000C4F88451D8F800204008920601D540F0AB
:107E70008000491E11F0FF01F0D1C9F10801C8408E
:107E800030702BE0FFE70021534616E05FF0080258
:107E9000C4F88431C4F88451D8F800C040085FEABF
:107EA0008C6C01D540F08000521E12F0FF02EFD121
:107EB00006F8010B0020491CC9B2B942E6D30BE019
:107EC0005FF00800C4F88431C4F88451401E10F0FB
:107ED000FF00F7D1491CC9B20429F1D35646C4F8B2
:107EE00084A1C4F88451C4F884A1C4F8845104F571
:107EF000C27400F0D3FB25612660256026602560F2
:107F0000BDE8F04700F030BA00002142E01900203F
:107F1000080801402DE9F05FDFF810B14FEAD00802
:107F200000F0070900200E46CBF894010BF5CA7447
:107F3000FFF71EFF01252560FFF71AFF2560FFF7F9
:107F400017FF2560FFF714FF2560FFF711FF00F012
:107F50008FFB0024FFF70CFF35480178354871B3DB
:107F60000027824612E00825FFF702FFDAF800003A
:107F70006408800601D544F080046D1E15F0FF05ED
:107F8000F2D106F8014B00247F1CFFB24745EAD32B
:107F9000B9F1000038D005464FEA0A07FFF7E8FEBE
:107FA00038686408800601D544F080046D1E15F021
:107FB000FF05F3D1C9F10800C440347024E0FFE7A5
:107FC0000025814612E00827FFF7D2FED9F800000D
:107FD0006408800601D544F080047F1E17F0FF0777
:107FE000F2D106F8014B00246D1CEDB24545EAD3F1
:107FF00008E00824FFF7BCFE641E14F0FF04F9D16A
:108000006D1CEDB2042DF4D3FFF7B2FEFFF7B0FE06
:1080100000F044FB0120CBF89401FFF7A9FEFFF725
:10802000A7FEBDE8F05F00F0B7B9000000002142F4
:10803000E019002008080140F0B4C60800F0070568
:1080400081480023C0F89431C0F884310122C0F87F
:108050008421C0F89431C0F88431C0F88421C0F87C
:108060009421C0F88431C0F88421C0F89421C0F86C
:108070008431C0F88421C0F89421C0F88431C0F85C
:108080008421724F00243F78F7BB5BE011F8017B3D
:1080900007F0010C7C40C0F894C17F08C0F884311F
:1080A000C0F8842107F0010CC0F894C17F08C0F823
:1080B0008431C0F8842107F0010CC0F894C17F0816
:1080C000C0F88431C0F8842107F0010CC0F894C1D5
:1080D0007F08C0F88431C0F8842107F0010CC0F893
:1080E00094C17F08C0F88431C0F8842107F0010CE6
:1080F000C0F894C17F08C0F88431C0F8842107F02B
:10810000010CC0F894C100E00AE07F08C0F8843197
:10811000C0F88421C0F89471C0F88431C0F884217B
:10812000761EF6B2B2D2E5B309784C40C0F894118D
:108130004908C0F88431C0F884216D1E15F0FF0590
:10814000F4D15FE000254BE011F8017B07F0010C52
:108150007C40C0F894C17F08C0F88431C0F8842105
:1081600007F0010CC0F894C17F08C0F88431C0F852
:10817000842107F0010CC0F894C17F08C0F8843155
:10818000C0F8842107F0010CC0F894C17F08C0F842
:108190008431C0F8842107F0010CC0F894C17F0835
:1081A00000E02FE0C0F88431C0F8842107F0010C12
:1081B000C0F894C17F08C0F88431C0F8842107F06A
:1081C000010CC0F894C17F08C0F88431C0F8842144
:1081D000C0F89471C0F88431C0F884216D1CEDB2F0
:1081E000B542B1D30CE00821C0F89431C0F8843115
:1081F000C0F88421491E11F0FF01F5D16D1CEDB2CC
:10820000042DF0D384EA141181EA910181EA51012D
:10821000491CC9B2C0F89411C0F88431C0F8842157
:10822000C0F89421C0F88431C0F88421C0F89421AA
:10823000C0F88431C0F88421C0F88431C0F88421AA
:10824000F0BC00F091B8000000002142E0190020CD
:108250002DE9F05FDFF808A14FF0000B8946C50853
:1082600000F007045F46CAF894B10AF5CA76FFF732
:108270007FFD3760FFF77CFD01273760FFF778FD52
:108280003760FFF775FD3760FFF772FD35484FF037
:108290000008007878B921E019F8016B5FF0080751
:1082A00088EA0608CAF894617608FFF761FD7F1E28
:1082B00017F0FF07F6D16D1EEDB2EDD29CB399F821
:1082C0000050564688EA0508C6F894516D08FFF735
:1082D0004FFD641E14F0FF04F6D125E0002410E0E9
:1082E00019F8016B5FF0080788EA0608CAF894617C
:1082F0007608FFF73DFD7F1E17F0FF07F6D1641CDF
:10830000E4B2AC42ECD35E465746042C0CD20825AE
:10831000C7F89461FFF72CFD6D1E15F0FF05F7D12E
:10832000641CE4B2F1E7FFE788EA181080EA9000E5
:1083300080EA5000401CC0B2CAF894010AF5CA7421
:10834000FFF716FD01252560FFF712FD2560FFF7F9
:108350000FFDFFF70DFDBDE8F05F00F01DB8000058
:1083600000002142E0190020094810B5016A006AA6
:10837000C1F3C45161F3DF0000230649012203E089
:10838000C1F88431C1F88421401EC0B2F8D210BDBA
:10839000B01A002000002142074810B5016A046AA3
:1083A000C1F3C45161F3DF0402E000BFFFF7E0FC5A
:1083B000641EE4B2FAD210BDB01A0020F0B4C508B1
:1083C00000F007044E480023C0F89431C0F884310F
:1083D0000122C0F88421C0F89431C0F88431C0F87B
:1083E0008421C0F89431C0F88431C0F88421C0F8E9
:1083F0009421C0F88431C0F88421C0F8942100BFD2
:10840000C0F88431C0F884216D1EEDB249D311F853
:10841000017B87EA171686EA960607F0010C86EAC2
:108420005606C0F894C17F08C0F88431C0F8842192
:1084300007F0010CC0F894C17F08C0F88431C0F87F
:10844000842107F0010CC0F894C17F08C0F8843182
:10845000C0F8842107F0010CC0F894C17F08C0F86F
:108460008431C0F8842107F0010CC0F894C17F0862
:10847000C0F88431C0F8842107F0010CC0F894C121
:108480007F08C0F88431C0F8842107F0010CC0F8DF
:1084900094C17F08C0F88431C0F88421C0F8947179
:1084A000AEE794B1097881EA111585EA950585EA68
:1084B000550600BFC0F894114908C0F88431C0F8CF
:1084C0008421641E14F0FF04F4D1761CF1B2C0F8CC
:1084D0009411C0F88431C0F88421C0F89421C0F808
:1084E0008431C0F88421C0F89421C0F88431C0F8E8
:1084F0008421C0F88431C0F88421F0BCFFF734BF78
:10850000000021422DE9F05F2E4CC50800270E46E1
:1085100000F00708C4F8947104F5CA74FFF728FC4A
:108520002760FFF725FC2760FFF722FC4FF0010BC7
:108530005F46C4F800B0FFF71BFC2760A4F5CA74BF
:10854000FFF716FCA2460FE03478082784EA1410DF
:1085500080EA900080EA5009CAF894416408FFF765
:1085600007FC7F1EF8D1761C6D1EEDB2ECD2B8F17F
:10857000000F10D03478454684EA141080EA900049
:1085800080EA50094FEA0A06C6F894416408FFF7EA
:10859000EFFB6D1EF8D109F10100C0B2CAF89401D9
:1085A0000AF5CA74FFF7E4FB5D46C4F800B0FFF7B4
:1085B000DFFB2560FFF7DCFBFFF7DAFBBDE8F05FD0
:1085C000FFF7EABE000021422DE9F041124FDDE93C
:1085D000065601221C463A7040B139B10A78D207DA
:1085E00004D10838C0B2491CFFF7E8FE84B1083C4A
:1085F00035B12878C00703D1E0B2691CFFF71CFD34
:1086000036B12878C00703D0E0B2711CFFF7D0FB69
:1086100000203870BDE8F081E01900202DE9F0411C
:10862000124FDDE9065601221C463A7040B139B1BD
:108630000A78D20704D10838C0B2491CFFF762FF9C
:1086400084B1083C35B12878C00703D1E0B2691C79
:10865000FFF7FEFD36B12878C00703D0E0B2711CE9
:10866000FFF758FC00203870BDE8F081E0190020C9
:10867000094908B5802008602020ADF80000482096
:108680008DF8030003208DF8020003486946143872
:10869000FCF756F908BD000014080140094908B567
:1086A000802008602020ADF8000010208DF8030025
:1086B00003208DF80200034869461038FCF740F9A2
:1086C00008BD00001008014070B5C006D2061E4665
:1086D000000E140E049D00F0C5FA314620461DB16F
:1086E000BDE8704000F04CB9BDE8704000F03EB805
:1086F00070B5C006D2061E46000E140E049D00F092
:1087000081FB314620461DB1BDE8704000F0FEB946
:10871000BDE8704000F0CAB870B500BF00BF0020CF
:10872000074CC4F88401074D04F5C2746868FCF76F
:1087300016F8012020606868BDE87040FCF70FB8AB
:1087400000002142E019002000BF00BF00210648C0
:10875000C0F8841100F5C27000BF00BF01210160A4
:1087600000BF00BF70470000000021422DE9F00368
:1087700000287DD04B4CC20800F007060020C4F84A
:10878000940104F5C27400BF00BF206000BF00BFA9
:108790000125256000BF00BF256100BF00BF20602C
:1087A00000BF00BF256000BF00BF206100BF00BF49
:1087B000206000BF00BF256000BF00BF206100BF78
:1087C00000BF206000BF00BF2560A4F5C27400BFD9
:1087D00000BFDFF8D4C0814620E00023082042EA31
:1087E00006075B081FB9012801D1C4F8945100BFE6
:1087F00000BFC4F8849100BF00BFC4F8845100BF1B
:1088000000BFDCF800805FEAC86801D543F0800350
:10881000401E10F0FF00E4D101F8013B521ED2B21D
:10882000DBD2FEB1002032464B464008012A01D17E
:10883000C4F8945100BF00BFC4F8843100BF00BF2A
:10884000C4F8845100BF00BFDCF80070FF0601D5FA
:1088500040F08000521E12F0FF02E6D1C6F108027D
:10886000D0400870C4F8945104F5C27400BF00E011
:1088700015E000BF4846C4F8009000BF00BF256067
:1088800000BF00BF206100BF00BF206000BF00BF6D
:10889000256000BF00BFBDE8F00300F0B3B9BDE83C
:1088A000F003704700002142080801402DE9F05F05
:1088B000884600285ED0304DC408002700F0070627
:1088C000C5F8947105F5CA75FFF726FF4FF0010B47
:1088D000C5F800B0FFF720FF2F60FFF71DFF2F60E6
:1088E000A5F5CA75FFF718FFAA4619E00027082565
:1088F00044EA06097F08B9F1000F03D1012D01D127
:10890000CAF894B1FFF708FF1C480068C00601D5FB
:1089100047F080076D1E15F0FF05EBD108F8017BCD
:10892000641EE4B2E2D2BEB1144F0024354664089E
:10893000012D01D1CAF894B1FFF7EEFE3868C006E8
:1089400001D544F080046D1E15F0FF05EFD1C6F18E
:108950000800C44088F800405446CAF894B1FFF7B4
:10896000DBFE0020C4F89401FFF7D6FEBDE8F05FFF
:1089700000F066B9BDE8F09F000021420808014000
:10898000F0B400287DD0C60800F007055D4800223D
:10899000C0F8942100F5C27000BF00BF026000BFA4
:1089A00000BF0123036000BF00BF036100BF00BF21
:1089B000026000BF00BF036000BF00BF026100BFD4
:1089C00000BF026000BF00BF036000BF00BF0261C4
:1089D0004D4CA0F5C2705CE011F8017B00BF00BFF8
:1089E000C0F8842100F5C27000BF00BF036000BF63
:1089F00000BFC4F8A4717F0804F5D27400BF00BFA3
:108A0000026000BF00BF036000BF00BF27607F0897
:108A100000BF00BF026000BF00BF036000BF00BF17
:108A200027607F0800BF00BF026000BF00BF036077
:108A300000BF00BF27607F0800BF00BF026000BF0B
:108A400000BF036000BF00BF27607F0800BF00BFFA
:108A5000026000BF00BF036000BF00BF27607F0847
:108A600000BF00BF026000BF00BF036000BF00BFC7
:108A700027607F0800BF00BF026000BF00BF036027
:108A800000E03DE0A0F5C27000BF00BF2760A4F584
:108A9000D274761EF6B29FD28DB109780CE000BF79
:108AA00000BFC0F8842100BF00BFC0F8843100BF00
:108AB00000BFC4F8A41149086D1EEDB2EFD2C0F892
:108AC000943100F5C27000BF00BF026000BF00BF5C
:108AD000036000BF00BF036100BF00BF026000BFB2
:108AE00000BF036000BF00BF026100BF00BF0260A3
:108AF00000BF00BF036000BF00BFF0BC00F082B841
:108B0000F0BC704700002142008021422DE9F05F57
:108B10000F46002870D0DFF8E4904FF0000BC60835
:108B200000F00705D846C9F894B109F5CA74FFF7F3
:108B3000F3FD4FF0010AC4F800A0FFF7EDFDC4F803
:108B40000080FFF7E9FDC4F800802D4C34E000BF41
:108B500017F8018BFFF7E0FDC4F8A4814FEA58082D
:108B600004F5D274FFF7D8FDC4F800804FEA580826
:108B7000FFF7D2FDC4F800804FEA5808FFF7CCFD9C
:108B8000C4F800804FEA5808FFF7C6FDC4F800801B
:108B90004FEA5808FFF7C0FDC4F800804FEA5808B4
:108BA000FFF7BAFDC4F800804FEA5808FFF7B4FD9C
:108BB000C4F80080A4F5D274761EF6B2C8D24DB1C6
:108BC0003E7804E0FFF7A8FDC4F8A46176086D1EA6
:108BD000EDB2F7D25546C9F894A109F5CA74FFF76A
:108BE0009BFD2560FFF798FDC4F800B0FFF794FDEA
:108BF000BDE8F05F00F024B8BDE8F09F000021421E
:108C0000008021420C4810B5016A006AC1F3C451CA
:108C100061F3DF0000230949012209E000BF00BF22
:108C2000C1F8843100BF00BFC1F8842100BF00BF7C
:108C3000401EC0B2F2D210BDB01A00200000214286
:108C4000074810B5016A046AC1F3C45161F3DF0437
:108C500002E000BFFFF760FD641EE4B2FAD210BD6F
:108C6000B01A0020F0B400287ED0C60800F0070536
:108C700062480022C0F8942100F5C27000BF00BF16
:108C8000026000BF00BF0124046000BF00BF046198
:108C900000BF00BF026000BF00BF046000BF00BF94
:108CA000046100BF00BF026000BF00BF046000BFDE
:108CB00000BF026100BF00BF026000BF00BF0460D0
:108CC00000BF00BF02614E4BA0F5C2705DE000BF67
:108CD00011F8017B00BF00BFC0F8842100F5C2700D
:108CE00000BF00BF046000BF00BFC3F8A4717F08CD
:108CF00003F5D27300BF00BF026000BF00BF046075
:108D000000BF00BF1F607F0800BF00BF026000BF40
:108D100000BF046000BF00BF1F607F0800BF00BF2E
:108D2000026000BF00BF046000BF00BF1F607F087B
:108D300000BF00BF026000BF00BF046000BF00BFF3
:108D40001F607F0800BF00BF026000BF00BF04605B
:108D500000BF00BF1F607F0800BF00BF026000BFF0
:108D600000BF046000BF00E046E000BF1F607F0856
:108D700000BF00BF026000BF00BF0460A0F5C2706A
:108D800000BF00BF1F60A3F5D273761EF6B29FD25C
:108D90008DB109780CE000BF00BFC0F8842100BF8E
:108DA00000BFC0F8844100BF00BFC3F8A411490848
:108DB0006D1EEDB2EFD2C0F8944100F5C27000BF55
:108DC00000BF026000BF00BF046000BF00BF0461BD
:108DD00000BF00BF026000BF00BF046000BF00BF53
:108DE000026100BF00BF026000BF00BF046000BF9F
:108DF00000BFF0BCFFF706BFF0BC70470000214287
:108E0000008021422DE9F05F0F46002874D0DFF882
:108E1000ECA04FF0000BC60800F00705D846CAF8D2
:108E200094B10AF5CA74FFF777FC4FF00109C4F852
:108E30000090FFF771FCC4F80090FFF76DFCC4F8D8
:108E40000080FFF769FCC4F800802D4C34E000BFBF
:108E500017F8018BFFF760FCC4F8A4814FEA5808AB
:108E600004F5D274FFF758FCC4F800804FEA5808A4
:108E7000FFF752FCC4F800804FEA5808FFF74CFC9B
:108E8000C4F800804FEA5808FFF746FCC4F8008099
:108E90004FEA5808FFF740FCC4F800804FEA580832
:108EA000FFF73AFCC4F800804FEA5808FFF734FC9B
:108EB000C4F80080A4F5D274761EF6B2C8D24DB1C3
:108EC0003E7804E0FFF728FCC4F8A46176086D1E24
:108ED000EDB2F7D24D46CAF894910AF5CA74FFF77D
:108EE0001BFC2560FFF718FCC4F800B0FFF714FC6A
:108EF000BDE8F05FFFF7A4BEBDE8F09F000021428F
:108F00000080214270B51C46DDE9046518B111B13D
:108F10000AB100F09FFA002C0AD0002E08D0002DD4
:108F200006D02A4631462046BDE8704000F018B809
:108F300070BD70B51C46DDE9046518B111B10AB108
:108F400000F014FC002C0AD0002E08D0002D06D012
:108F50002A4631462046BDE8704000F085B970BD14
:108F60002DE9F05F00287DD0C70800F00705BB4859
:108F70000026AE46C0F8946100F5C27000BF00BF85
:108F8000066000BF00BF4FF0010CC0F800C000BF7A
:108F900000BFC0F810C000BF00BF066000BF00BF28
:108FA000C0F800C000BF00BF066100BF00BF066080
:108FB00000BF00BFC0F800C000BF00BF066100BF17
:108FC00000BF066000BF00BFC0F800C0A0F5C270BF
:108FD00000BF00BFA24B8024B246E146F1E000BFD3
:108FE00011F801BB9F4E0BF0010CC6F8A4C100BFE5
:108FF00000BFC0F884A100BF00BFC0F8849100BFCB
:1090000000BF92F800C04FEA5C0C82F800C0D3F8B1
:1090100000804FEA5B0B04EAC8084CEA080C82F8AF
:1090200000C00BF0010CC6F8A4C100BF00BFC0F81F
:1090300084A100BF00BFC0F8849100BF00BF92F8B8
:1090400000C04FEA5C0C82F800C0D3F800804FEA01
:109050005B0B04EAC8084CEA080C82F800C00BF06D
:10906000010C00E0F7E0C6F8A4C100BF00BFC0F8E3
:1090700084A100BF00BFC0F8849100BF00BF92F878
:1090800000C04FEA5C0C82F800C0D3F800804FEAC1
:109090005B0B04EAC8084CEA080C82F800C00BF02D
:1090A000010CC6F8A4C100BF00BFC0F884A100BF76
:1090B00000BFC0F8849100BF00BF92F800C04FEA23
:1090C0005C0C82F800C0D3F800804FEA5B0B04EA26
:1090D000C8084CEA080C82F800C00BF0010CC6F876
:1090E000A4C100BF00BFC0F884A100BF00BFC0F88A
:1090F000849100BF00BF92F800C04FEA5C0C82F878
:1091000000C0D3F800804FEA5B0B04EAC8084CEAC1
:10911000080C82F800C00BF0010CC6F8A4C100BF17
:1091200000BFC0F884A100BF00BFC0F8849100BF99
:1091300000BF92F800C04FEA5C0C82F800C0D3F880
:10914000008004EAC8084CEA080C82F800C04FEA24
:109150005B0C0CF00108C6F8A48100BF00BFC0F88A
:1091600084A100BF00BFC0F8849100BF00BF167883
:1091700076081670D3F8008004EAC80846EA0806A4
:1091800016704FEA5C0657EA050C01D1C0F89491BD
:10919000DFF8D0C0CCF8A46100BF00BFC0F884A144
:1091A00000BF00BFC0F8849100BF00BF16787608EA
:1091B0001670D3F800C004EACC0C46EA0C0602F89C
:1091C000016B7F1EFFB2BFF40BAF45B309784E466B
:1091D000DFF890801BE00DB9C0F8946101F0010741
:1091E000C8F8A47100BF00BFC0F884A100BF00BFD1
:1091F000C0F8846100BF00BF17787F081770D3F8EC
:1092000000C0490804EACC0C47EA0C0717706D1E31
:10921000EDB2E0D21178CEF10803D9401170494681
:10922000C0F8949100F5C27000BF00BF5246C0F86C
:1092300000A000BF00BF016000BF00BF026100BF0F
:1092400000BF026000BF00BF016000BF00BFBDE8FB
:10925000F05FFFF7D7BCBDE8F09F0000000021429F
:1092600008080140008021422DE9F84F14460F46BE
:1092700000287DD0DFF8D08100F007054FF000090D
:109280000095C608C8F89491FFF746FA0120C8F87F
:109290009401FFF741FAC8F89491FFF73DFAC8F836
:1092A0009491FFF739FADFF8A481DFF8A4914FF029
:1092B000800A8FE017F801BB0BF00101C8F8A41178
:1092C000FFF72AFA207840082070D9F800204FEAEA
:1092D0005B0B0AEAC201084320700BF00101C8F8D9
:1092E000A411FFF719FA207840082070D9F800205F
:1092F0004FEA5B0B0AEAC201084320700BF0010140
:10930000C8F8A411FFF708FA207840082070D9F8AF
:1093100000204FEA5B0B0AEAC201084320700BF001
:109320000101C8F8A411FFF7F7F920784008207070
:10933000D9F800204FEA5B0B0AEAC201084320700B
:109340000BF00101C8F8A411FFF7E6F920784008F6
:109350002070D9F800204FEA5B0B0AEAC2010843EB
:1093600020700BF00101C8F8A411FFF7D5F900E057
:1093700067E0207840082070D9F800204FEA5B0BA6
:109380000AEAC201084320700BF00101C8F8A411D9
:10939000FFF7C2F9207840082070D9F800200AEAC7
:1093A000C201084320704FEA5B0056EA050103D171
:1093B000254A0121C2F89411C8F8A401FFF7ACF9BD
:1093C000207840082070D9F800200AEAC20108433A
:1093D00004F8010B761EF6B2BFF46CAF0DB33E7805
:1093E000DFF864B0574613E015B90120CBF89401BB
:1093F00006F00101C8F8A411FFF78EF920784008A3
:109400002070D9F8001007EAC101084320707608DF
:109410006D1EEDB2E8D200992078C1F10801C84074
:109420002070094C0120C4F8940104F5CA74FFF7B8
:1094300073F900202060FFF76FF9BDE8F84FFFF7E0
:10944000FFBBBDE8F88F00000000214200802142F0
:10945000080801402DE9F05F00287DD0C70800F022
:109460000705BF480026AE46C0F8946100F5C270FB
:1094700000BF00BF066000BF00BF4FF0010CC0F886
:1094800000C000BF00BFC0F810C000BF00BF066032
:1094900000BF00BFC0F800C000BF00BFC0F810C0D0
:1094A00000BF00BF066000BF00BFC0F800C000BF23
:1094B00000BF066100BF00BF066000BF00BFC0F86C
:1094C00000C000BF00BF066100BF00BF066000BF54
:1094D00000BFC0F800C0A0F5C27000BF00BFA14B24
:1094E0008024B246E146EFE011F801BB9E4E0BF03E
:1094F000010CC6F8A4C100BF00BFC0F884A100BF22
:1095000000BFC0F8849100BF00BF92F800C04FEACE
:109510005C0C82F800C0D3F800804FEA5B0B04EAD1
:10952000C8084CEA080C82F800C00BF0010CC6F821
:10953000A4C100BF00BFC0F884A100BF00BFC0F835
:10954000849100BF00BF92F800C04FEA5C0C82F823
:1095500000C0D3F8008000E000E104EAC8084CEA4B
:10956000080C82F800C04FEA5B0B0BF0010CC6F848
:10957000A4C100BF00BFC0F884A100BF00BFC0F8F5
:10958000849100BF00BF92F800C04FEA5C0C82F8E3
:1095900000C0D3F800804FEA5B0B04EAC8084CEA2D
:1095A000080C82F800C00BF0010CC6F8A4C100BF83
:1095B00000BFC0F884A100BF00BFC0F8849100BF05
:1095C00000BF92F800C04FEA5C0C82F800C0D3F8EC
:1095D00000804FEA5B0B04EAC8084CEA080C82F8EA
:1095E00000C00BF0010CC6F8A4C100BF00BFC0F85A
:1095F00084A100BF00BFC0F8849100BF00BF92F8F3
:1096000000C04FEA5C0C82F800C0D3F800804FEA3B
:109610005B0B04EAC8084CEA080C82F800C00BF0A7
:10962000010CC6F8A4C100BF00BFC0F884A100BFF0
:1096300000BFC0F8849100BF00BF92F800C04FEA9D
:109640005C0C82F800C0D3F8008004EAC8084CEA39
:10965000080C82F800C04FEA5B0C0CF00108C6F859
:10966000A48100BF00BFC0F884A100BF00BFC0F844
:10967000849100BF00BF167876081670D3F800807A
:1096800004EAC80846EA080616704FEA5C0657EA7C
:10969000050C01D1C0F89491DFF8CCC0CCF8A461DE
:1096A00000BF00BFC0F884A100BF00BFC0F8849114
:1096B00000BF00BF167876081670D3F800C004EA21
:1096C000CC0C46EA0C0616707F1EFFB2BFF40CAF3E
:1096D00045B309784E46DFF890801BE00DB9C0F81D
:1096E000946101F00107C8F8A47100BF00BFC0F881
:1096F00084A100BF00BFC0F8846100BF00BF17781D
:109700007F081770D3F800C0490804EACC0C47EA78
:109710000C0717706D1EEDB2E0D21378CEF1080180
:10972000CB4013704946C0F8949100F5C27000BF59
:1097300000BF5246C0F800A000BF00BF016000BFDC
:1097400000BF026100BF00BF026000BF00BF016038
:1097500000BF00BFBDE8F05FFFF754BABDE8F09F5F
:109760000000214208080140008021422DE9F84F05
:1097700014460F4600287DD0DFF8DC8100F0070595
:109780004FF000090095C608C8F89491FEF7C4FF91
:109790004FF0010AC8F894A1FEF7BEFFC8F894A1E3
:1097A000FEF7BAFFC8F89491FEF7B6FFC8F8949197
:1097B000FEF7B2FFDFF8A481DFF8A4914FF0800A32
:1097C00090E000BF17F801BB0BF00101C8F8A4112D
:1097D000FEF7A2FF207840082070D9F800204FEA59
:1097E0005B0B0AEAC201084320700BF00101C8F8C4
:1097F000A411FEF791FF207840082070D9F80020CE
:109800004FEA5B0B0AEAC201084320700BF001012A
:10981000C8F8A411FEF780FF207840082070D9F81E
:1098200000204FEA5B0B0AEAC201084320700BF0EC
:109830000101C8F8A411FEF76FFF207840082070DE
:10984000D9F800204FEA5B0B0AEAC20108432070F6
:109850000BF00101C8F8A411FEF75EFF2078400864
:109860002070D9F800204FEA5B0B0AEAC2010843D6
:10987000207000E06DE00BF00101C8F8A411FEF7C4
:109880004BFF207840082070D9F800204FEA5B0B8E
:109890000AEAC201084320700BF00101C8F8A411C4
:1098A000FEF73AFF207840082070D9F800200AEA35
:1098B000C201084320704FEA5B0056EA050103D15C
:1098C000254A0121C2F89411C8F8A401FEF724FF2B
:1098D000207840082070D9F800200AEAC201084325
:1098E00004F8010B761EF6B2BFF46CAF0DB33E78F0
:1098F000DFF864B0574613E015B90120CBF89401A6
:1099000006F00101C8F8A411FEF706FF2078400810
:109910002070D9F8001007EAC101084320707608CA
:109920006D1EEDB2E8D200992078C1F10801C8405F
:109930002070094C0120C4F8940104F5CA74FEF7A4
:10994000EBFE00202060FEF7E7FEBDE8F84FFFF7D2
:1099500077B9BDE8F88F0000000021420080214265
:10996000080801402DE9FC47DFF87C9099F80010C9
:1099700099F80000C1F3411710F010064FF00008ED
:10998000A9F67C3404D00A25A01C00F028FF06E0CC
:109990006179D4F80200062561F31F604146635DDA
:1099A000D9F808404D46682204F8012B04F8018BD1
:1099B00004F8013BCDE900760C4E22465B1CF66AAA
:1099C000B0470444A868201A28612969A868FCF7F0
:1099D00093F92070162060702869801C2861BDE80A
:1099E000FC47FCF701BB0000582600204C19002062
:1099F0002DE9FC411C480178C1F34117017811F0B1
:109A0000100602D00A220D2301E006220923446831
:109A10001649641A8A5C521C1A44A24220D8804615
:109A200041608C1C00252EB1204600F0D8FE04F1C8
:109A3000080205E0E1782068221D61F31F602946D5
:109A400012F8013B0A4CCDE90076246B5B1CA04761
:109A5000C8F8105088F80D50BDE8FC41FCF7C4BAB6
:109A600001218170BDE8FC8158260020DC1A00200D
:109A70004C190020064810B5002101730161A0F6C1
:109A80007A3001F0CBFFBDE81040FCF7ADBA000022
:109A9000582600202DE9FC47DFF808810024D8F87B
:109AA0000800FF2870D0682609271625052866D2E9
:109AB000DFE800F0030F212635008DF800608DF8F7
:109AC00001708DF8024010208DF803408DF80400DD
:109AD00005E08DF800608DF80170012018E08DF828
